ARM GAS  /tmp/ccTC69Sk.s 			page 1


   1              		.cpu cortex-m0
   2              		.eabi_attribute 20, 1
   3              		.eabi_attribute 21, 1
   4              		.eabi_attribute 23, 3
   5              		.eabi_attribute 24, 1
   6              		.eabi_attribute 25, 1
   7              		.eabi_attribute 26, 1
   8              		.eabi_attribute 30, 1
   9              		.eabi_attribute 34, 0
  10              		.eabi_attribute 18, 4
  11              		.file	"stm32f0xx_hal_flash.c"
  12              		.text
  13              	.Ltext0:
  14              		.cfi_sections	.debug_frame
  15              		.section	.text.FLASH_Program_HalfWord,"ax",%progbits
  16              		.align	1
  17              		.arch armv6s-m
  18              		.syntax unified
  19              		.code	16
  20              		.thumb_func
  21              		.fpu softvfp
  23              	FLASH_Program_HalfWord:
  24              	.LVL0:
  25              	.LFB51:
  26              		.file 1 "Drivers/STM32F0xx_HAL_Driver/Src/stm32f0xx_hal_flash.c"
   1:Drivers/STM32F0xx_HAL_Driver/Src/stm32f0xx_hal_flash.c **** /**
   2:Drivers/STM32F0xx_HAL_Driver/Src/stm32f0xx_hal_flash.c ****   ******************************************************************************
   3:Drivers/STM32F0xx_HAL_Driver/Src/stm32f0xx_hal_flash.c ****   * @file    stm32f0xx_hal_flash.c
   4:Drivers/STM32F0xx_HAL_Driver/Src/stm32f0xx_hal_flash.c ****   * @author  MCD Application Team
   5:Drivers/STM32F0xx_HAL_Driver/Src/stm32f0xx_hal_flash.c ****   * @brief   FLASH HAL module driver.
   6:Drivers/STM32F0xx_HAL_Driver/Src/stm32f0xx_hal_flash.c ****   *          This file provides firmware functions to manage the following 
   7:Drivers/STM32F0xx_HAL_Driver/Src/stm32f0xx_hal_flash.c ****   *          functionalities of the internal FLASH memory:
   8:Drivers/STM32F0xx_HAL_Driver/Src/stm32f0xx_hal_flash.c ****   *           + Program operations functions
   9:Drivers/STM32F0xx_HAL_Driver/Src/stm32f0xx_hal_flash.c ****   *           + Memory Control functions 
  10:Drivers/STM32F0xx_HAL_Driver/Src/stm32f0xx_hal_flash.c ****   *           + Peripheral State functions
  11:Drivers/STM32F0xx_HAL_Driver/Src/stm32f0xx_hal_flash.c ****   *         
  12:Drivers/STM32F0xx_HAL_Driver/Src/stm32f0xx_hal_flash.c ****   @verbatim
  13:Drivers/STM32F0xx_HAL_Driver/Src/stm32f0xx_hal_flash.c ****   ==============================================================================
  14:Drivers/STM32F0xx_HAL_Driver/Src/stm32f0xx_hal_flash.c ****                         ##### FLASH peripheral features #####
  15:Drivers/STM32F0xx_HAL_Driver/Src/stm32f0xx_hal_flash.c ****   ==============================================================================
  16:Drivers/STM32F0xx_HAL_Driver/Src/stm32f0xx_hal_flash.c ****   [..] The Flash memory interface manages CPU AHB I-Code and D-Code accesses 
  17:Drivers/STM32F0xx_HAL_Driver/Src/stm32f0xx_hal_flash.c ****        to the Flash memory. It implements the erase and program Flash memory operations 
  18:Drivers/STM32F0xx_HAL_Driver/Src/stm32f0xx_hal_flash.c ****        and the read and write protection mechanisms.
  19:Drivers/STM32F0xx_HAL_Driver/Src/stm32f0xx_hal_flash.c **** 
  20:Drivers/STM32F0xx_HAL_Driver/Src/stm32f0xx_hal_flash.c ****   [..] The Flash memory interface accelerates code execution with a system of instruction
  21:Drivers/STM32F0xx_HAL_Driver/Src/stm32f0xx_hal_flash.c ****       prefetch. 
  22:Drivers/STM32F0xx_HAL_Driver/Src/stm32f0xx_hal_flash.c **** 
  23:Drivers/STM32F0xx_HAL_Driver/Src/stm32f0xx_hal_flash.c ****   [..] The FLASH main features are:
  24:Drivers/STM32F0xx_HAL_Driver/Src/stm32f0xx_hal_flash.c ****       (+) Flash memory read operations
  25:Drivers/STM32F0xx_HAL_Driver/Src/stm32f0xx_hal_flash.c ****       (+) Flash memory program/erase operations
  26:Drivers/STM32F0xx_HAL_Driver/Src/stm32f0xx_hal_flash.c ****       (+) Read / write protections
  27:Drivers/STM32F0xx_HAL_Driver/Src/stm32f0xx_hal_flash.c ****       (+) Prefetch on I-Code
  28:Drivers/STM32F0xx_HAL_Driver/Src/stm32f0xx_hal_flash.c ****       (+) Option Bytes programming
  29:Drivers/STM32F0xx_HAL_Driver/Src/stm32f0xx_hal_flash.c **** 
  30:Drivers/STM32F0xx_HAL_Driver/Src/stm32f0xx_hal_flash.c **** 
  31:Drivers/STM32F0xx_HAL_Driver/Src/stm32f0xx_hal_flash.c ****                      ##### How to use this driver #####
  32:Drivers/STM32F0xx_HAL_Driver/Src/stm32f0xx_hal_flash.c ****   ==============================================================================
ARM GAS  /tmp/ccTC69Sk.s 			page 2


  33:Drivers/STM32F0xx_HAL_Driver/Src/stm32f0xx_hal_flash.c ****   [..]                             
  34:Drivers/STM32F0xx_HAL_Driver/Src/stm32f0xx_hal_flash.c ****       This driver provides functions and macros to configure and program the FLASH 
  35:Drivers/STM32F0xx_HAL_Driver/Src/stm32f0xx_hal_flash.c ****       memory of all STM32F0xx devices.
  36:Drivers/STM32F0xx_HAL_Driver/Src/stm32f0xx_hal_flash.c ****     
  37:Drivers/STM32F0xx_HAL_Driver/Src/stm32f0xx_hal_flash.c ****       (#) FLASH Memory I/O Programming functions: this group includes all needed
  38:Drivers/STM32F0xx_HAL_Driver/Src/stm32f0xx_hal_flash.c ****           functions to erase and program the main memory:
  39:Drivers/STM32F0xx_HAL_Driver/Src/stm32f0xx_hal_flash.c ****         (++) Lock and Unlock the FLASH interface
  40:Drivers/STM32F0xx_HAL_Driver/Src/stm32f0xx_hal_flash.c ****         (++) Erase function: Erase page, erase all pages
  41:Drivers/STM32F0xx_HAL_Driver/Src/stm32f0xx_hal_flash.c ****         (++) Program functions: half word, word and doubleword
  42:Drivers/STM32F0xx_HAL_Driver/Src/stm32f0xx_hal_flash.c ****       (#) FLASH Option Bytes Programming functions: this group includes all needed
  43:Drivers/STM32F0xx_HAL_Driver/Src/stm32f0xx_hal_flash.c ****           functions to manage the Option Bytes:
  44:Drivers/STM32F0xx_HAL_Driver/Src/stm32f0xx_hal_flash.c ****         (++) Lock and Unlock the Option Bytes
  45:Drivers/STM32F0xx_HAL_Driver/Src/stm32f0xx_hal_flash.c ****         (++) Set/Reset the write protection
  46:Drivers/STM32F0xx_HAL_Driver/Src/stm32f0xx_hal_flash.c ****         (++) Set the Read protection Level
  47:Drivers/STM32F0xx_HAL_Driver/Src/stm32f0xx_hal_flash.c ****         (++) Program the user Option Bytes
  48:Drivers/STM32F0xx_HAL_Driver/Src/stm32f0xx_hal_flash.c ****         (++) Launch the Option Bytes loader
  49:Drivers/STM32F0xx_HAL_Driver/Src/stm32f0xx_hal_flash.c ****         (++) Erase Option Bytes
  50:Drivers/STM32F0xx_HAL_Driver/Src/stm32f0xx_hal_flash.c ****         (++) Program the data Option Bytes
  51:Drivers/STM32F0xx_HAL_Driver/Src/stm32f0xx_hal_flash.c ****         (++) Get the Write protection.
  52:Drivers/STM32F0xx_HAL_Driver/Src/stm32f0xx_hal_flash.c ****         (++) Get the user option bytes.
  53:Drivers/STM32F0xx_HAL_Driver/Src/stm32f0xx_hal_flash.c ****     
  54:Drivers/STM32F0xx_HAL_Driver/Src/stm32f0xx_hal_flash.c ****       (#) Interrupts and flags management functions : this group 
  55:Drivers/STM32F0xx_HAL_Driver/Src/stm32f0xx_hal_flash.c ****           includes all needed functions to:
  56:Drivers/STM32F0xx_HAL_Driver/Src/stm32f0xx_hal_flash.c ****         (++) Handle FLASH interrupts
  57:Drivers/STM32F0xx_HAL_Driver/Src/stm32f0xx_hal_flash.c ****         (++) Wait for last FLASH operation according to its status
  58:Drivers/STM32F0xx_HAL_Driver/Src/stm32f0xx_hal_flash.c ****         (++) Get error flag status
  59:Drivers/STM32F0xx_HAL_Driver/Src/stm32f0xx_hal_flash.c **** 
  60:Drivers/STM32F0xx_HAL_Driver/Src/stm32f0xx_hal_flash.c ****   [..] In addition to these function, this driver includes a set of macros allowing
  61:Drivers/STM32F0xx_HAL_Driver/Src/stm32f0xx_hal_flash.c ****        to handle the following operations:
  62:Drivers/STM32F0xx_HAL_Driver/Src/stm32f0xx_hal_flash.c ****       
  63:Drivers/STM32F0xx_HAL_Driver/Src/stm32f0xx_hal_flash.c ****       (+) Set/Get the latency
  64:Drivers/STM32F0xx_HAL_Driver/Src/stm32f0xx_hal_flash.c ****       (+) Enable/Disable the prefetch buffer
  65:Drivers/STM32F0xx_HAL_Driver/Src/stm32f0xx_hal_flash.c ****       (+) Enable/Disable the FLASH interrupts
  66:Drivers/STM32F0xx_HAL_Driver/Src/stm32f0xx_hal_flash.c ****       (+) Monitor the FLASH flags status
  67:Drivers/STM32F0xx_HAL_Driver/Src/stm32f0xx_hal_flash.c ****           
  68:Drivers/STM32F0xx_HAL_Driver/Src/stm32f0xx_hal_flash.c ****   @endverbatim
  69:Drivers/STM32F0xx_HAL_Driver/Src/stm32f0xx_hal_flash.c ****   ******************************************************************************
  70:Drivers/STM32F0xx_HAL_Driver/Src/stm32f0xx_hal_flash.c ****   * @attention
  71:Drivers/STM32F0xx_HAL_Driver/Src/stm32f0xx_hal_flash.c ****   *
  72:Drivers/STM32F0xx_HAL_Driver/Src/stm32f0xx_hal_flash.c ****   * <h2><center>&copy; Copyright (c) 2016 STMicroelectronics.
  73:Drivers/STM32F0xx_HAL_Driver/Src/stm32f0xx_hal_flash.c ****   * All rights reserved.</center></h2>
  74:Drivers/STM32F0xx_HAL_Driver/Src/stm32f0xx_hal_flash.c ****   *
  75:Drivers/STM32F0xx_HAL_Driver/Src/stm32f0xx_hal_flash.c ****   * This software component is licensed by ST under BSD 3-Clause license,
  76:Drivers/STM32F0xx_HAL_Driver/Src/stm32f0xx_hal_flash.c ****   * the "License"; You may not use this file except in compliance with the
  77:Drivers/STM32F0xx_HAL_Driver/Src/stm32f0xx_hal_flash.c ****   * License. You may obtain a copy of the License at:
  78:Drivers/STM32F0xx_HAL_Driver/Src/stm32f0xx_hal_flash.c ****   *                        opensource.org/licenses/BSD-3-Clause
  79:Drivers/STM32F0xx_HAL_Driver/Src/stm32f0xx_hal_flash.c ****   *
  80:Drivers/STM32F0xx_HAL_Driver/Src/stm32f0xx_hal_flash.c ****   ******************************************************************************
  81:Drivers/STM32F0xx_HAL_Driver/Src/stm32f0xx_hal_flash.c ****   */
  82:Drivers/STM32F0xx_HAL_Driver/Src/stm32f0xx_hal_flash.c **** 
  83:Drivers/STM32F0xx_HAL_Driver/Src/stm32f0xx_hal_flash.c **** /* Includes ------------------------------------------------------------------*/
  84:Drivers/STM32F0xx_HAL_Driver/Src/stm32f0xx_hal_flash.c **** #include "stm32f0xx_hal.h"
  85:Drivers/STM32F0xx_HAL_Driver/Src/stm32f0xx_hal_flash.c **** 
  86:Drivers/STM32F0xx_HAL_Driver/Src/stm32f0xx_hal_flash.c **** /** @addtogroup STM32F0xx_HAL_Driver
  87:Drivers/STM32F0xx_HAL_Driver/Src/stm32f0xx_hal_flash.c ****   * @{
  88:Drivers/STM32F0xx_HAL_Driver/Src/stm32f0xx_hal_flash.c ****   */
  89:Drivers/STM32F0xx_HAL_Driver/Src/stm32f0xx_hal_flash.c **** 
ARM GAS  /tmp/ccTC69Sk.s 			page 3


  90:Drivers/STM32F0xx_HAL_Driver/Src/stm32f0xx_hal_flash.c **** #ifdef HAL_FLASH_MODULE_ENABLED
  91:Drivers/STM32F0xx_HAL_Driver/Src/stm32f0xx_hal_flash.c **** 
  92:Drivers/STM32F0xx_HAL_Driver/Src/stm32f0xx_hal_flash.c **** /** @defgroup FLASH FLASH
  93:Drivers/STM32F0xx_HAL_Driver/Src/stm32f0xx_hal_flash.c ****   * @brief FLASH HAL module driver
  94:Drivers/STM32F0xx_HAL_Driver/Src/stm32f0xx_hal_flash.c ****   * @{
  95:Drivers/STM32F0xx_HAL_Driver/Src/stm32f0xx_hal_flash.c ****   */
  96:Drivers/STM32F0xx_HAL_Driver/Src/stm32f0xx_hal_flash.c **** 
  97:Drivers/STM32F0xx_HAL_Driver/Src/stm32f0xx_hal_flash.c **** /* Private typedef -----------------------------------------------------------*/
  98:Drivers/STM32F0xx_HAL_Driver/Src/stm32f0xx_hal_flash.c **** /* Private define ------------------------------------------------------------*/
  99:Drivers/STM32F0xx_HAL_Driver/Src/stm32f0xx_hal_flash.c **** /** @defgroup FLASH_Private_Constants FLASH Private Constants
 100:Drivers/STM32F0xx_HAL_Driver/Src/stm32f0xx_hal_flash.c ****   * @{
 101:Drivers/STM32F0xx_HAL_Driver/Src/stm32f0xx_hal_flash.c ****   */
 102:Drivers/STM32F0xx_HAL_Driver/Src/stm32f0xx_hal_flash.c **** /**
 103:Drivers/STM32F0xx_HAL_Driver/Src/stm32f0xx_hal_flash.c ****   * @}
 104:Drivers/STM32F0xx_HAL_Driver/Src/stm32f0xx_hal_flash.c ****   */
 105:Drivers/STM32F0xx_HAL_Driver/Src/stm32f0xx_hal_flash.c **** 
 106:Drivers/STM32F0xx_HAL_Driver/Src/stm32f0xx_hal_flash.c **** /* Private macro ---------------------------- ---------------------------------*/
 107:Drivers/STM32F0xx_HAL_Driver/Src/stm32f0xx_hal_flash.c **** /** @defgroup FLASH_Private_Macros FLASH Private Macros
 108:Drivers/STM32F0xx_HAL_Driver/Src/stm32f0xx_hal_flash.c ****   * @{
 109:Drivers/STM32F0xx_HAL_Driver/Src/stm32f0xx_hal_flash.c ****   */
 110:Drivers/STM32F0xx_HAL_Driver/Src/stm32f0xx_hal_flash.c ****  
 111:Drivers/STM32F0xx_HAL_Driver/Src/stm32f0xx_hal_flash.c **** /**
 112:Drivers/STM32F0xx_HAL_Driver/Src/stm32f0xx_hal_flash.c ****   * @}
 113:Drivers/STM32F0xx_HAL_Driver/Src/stm32f0xx_hal_flash.c ****   */
 114:Drivers/STM32F0xx_HAL_Driver/Src/stm32f0xx_hal_flash.c **** 
 115:Drivers/STM32F0xx_HAL_Driver/Src/stm32f0xx_hal_flash.c **** /* Private variables ---------------------------------------------------------*/
 116:Drivers/STM32F0xx_HAL_Driver/Src/stm32f0xx_hal_flash.c **** /** @defgroup FLASH_Private_Variables FLASH Private Variables
 117:Drivers/STM32F0xx_HAL_Driver/Src/stm32f0xx_hal_flash.c ****   * @{
 118:Drivers/STM32F0xx_HAL_Driver/Src/stm32f0xx_hal_flash.c ****   */
 119:Drivers/STM32F0xx_HAL_Driver/Src/stm32f0xx_hal_flash.c **** /* Variables used for Erase pages under interruption*/
 120:Drivers/STM32F0xx_HAL_Driver/Src/stm32f0xx_hal_flash.c **** FLASH_ProcessTypeDef pFlash;
 121:Drivers/STM32F0xx_HAL_Driver/Src/stm32f0xx_hal_flash.c **** /**
 122:Drivers/STM32F0xx_HAL_Driver/Src/stm32f0xx_hal_flash.c ****   * @}
 123:Drivers/STM32F0xx_HAL_Driver/Src/stm32f0xx_hal_flash.c ****   */
 124:Drivers/STM32F0xx_HAL_Driver/Src/stm32f0xx_hal_flash.c **** 
 125:Drivers/STM32F0xx_HAL_Driver/Src/stm32f0xx_hal_flash.c **** /* Private function prototypes -----------------------------------------------*/
 126:Drivers/STM32F0xx_HAL_Driver/Src/stm32f0xx_hal_flash.c **** /** @defgroup FLASH_Private_Functions FLASH Private Functions
 127:Drivers/STM32F0xx_HAL_Driver/Src/stm32f0xx_hal_flash.c ****   * @{
 128:Drivers/STM32F0xx_HAL_Driver/Src/stm32f0xx_hal_flash.c ****   */
 129:Drivers/STM32F0xx_HAL_Driver/Src/stm32f0xx_hal_flash.c **** static  void   FLASH_Program_HalfWord(uint32_t Address, uint16_t Data);
 130:Drivers/STM32F0xx_HAL_Driver/Src/stm32f0xx_hal_flash.c **** static  void   FLASH_SetErrorCode(void);
 131:Drivers/STM32F0xx_HAL_Driver/Src/stm32f0xx_hal_flash.c **** extern void    FLASH_PageErase(uint32_t PageAddress);
 132:Drivers/STM32F0xx_HAL_Driver/Src/stm32f0xx_hal_flash.c **** /**
 133:Drivers/STM32F0xx_HAL_Driver/Src/stm32f0xx_hal_flash.c ****   * @}
 134:Drivers/STM32F0xx_HAL_Driver/Src/stm32f0xx_hal_flash.c ****   */
 135:Drivers/STM32F0xx_HAL_Driver/Src/stm32f0xx_hal_flash.c **** 
 136:Drivers/STM32F0xx_HAL_Driver/Src/stm32f0xx_hal_flash.c **** /* Exported functions ---------------------------------------------------------*/
 137:Drivers/STM32F0xx_HAL_Driver/Src/stm32f0xx_hal_flash.c **** /** @defgroup FLASH_Exported_Functions FLASH Exported Functions
 138:Drivers/STM32F0xx_HAL_Driver/Src/stm32f0xx_hal_flash.c ****   * @{
 139:Drivers/STM32F0xx_HAL_Driver/Src/stm32f0xx_hal_flash.c ****   */
 140:Drivers/STM32F0xx_HAL_Driver/Src/stm32f0xx_hal_flash.c ****   
 141:Drivers/STM32F0xx_HAL_Driver/Src/stm32f0xx_hal_flash.c **** /** @defgroup FLASH_Exported_Functions_Group1 Programming operation functions 
 142:Drivers/STM32F0xx_HAL_Driver/Src/stm32f0xx_hal_flash.c ****   *  @brief   Programming operation functions 
 143:Drivers/STM32F0xx_HAL_Driver/Src/stm32f0xx_hal_flash.c ****   *
 144:Drivers/STM32F0xx_HAL_Driver/Src/stm32f0xx_hal_flash.c **** @verbatim   
 145:Drivers/STM32F0xx_HAL_Driver/Src/stm32f0xx_hal_flash.c **** @endverbatim
 146:Drivers/STM32F0xx_HAL_Driver/Src/stm32f0xx_hal_flash.c ****   * @{
ARM GAS  /tmp/ccTC69Sk.s 			page 4


 147:Drivers/STM32F0xx_HAL_Driver/Src/stm32f0xx_hal_flash.c ****   */
 148:Drivers/STM32F0xx_HAL_Driver/Src/stm32f0xx_hal_flash.c **** 
 149:Drivers/STM32F0xx_HAL_Driver/Src/stm32f0xx_hal_flash.c **** /**
 150:Drivers/STM32F0xx_HAL_Driver/Src/stm32f0xx_hal_flash.c ****   * @brief  Program halfword, word or double word at a specified address
 151:Drivers/STM32F0xx_HAL_Driver/Src/stm32f0xx_hal_flash.c ****   * @note   The function HAL_FLASH_Unlock() should be called before to unlock the FLASH interface
 152:Drivers/STM32F0xx_HAL_Driver/Src/stm32f0xx_hal_flash.c ****   *         The function HAL_FLASH_Lock() should be called after to lock the FLASH interface
 153:Drivers/STM32F0xx_HAL_Driver/Src/stm32f0xx_hal_flash.c ****   *
 154:Drivers/STM32F0xx_HAL_Driver/Src/stm32f0xx_hal_flash.c ****   * @note   If an erase and a program operations are requested simultaneously,    
 155:Drivers/STM32F0xx_HAL_Driver/Src/stm32f0xx_hal_flash.c ****   *         the erase operation is performed before the program one.
 156:Drivers/STM32F0xx_HAL_Driver/Src/stm32f0xx_hal_flash.c ****   *  
 157:Drivers/STM32F0xx_HAL_Driver/Src/stm32f0xx_hal_flash.c ****   * @note   FLASH should be previously erased before new programming (only exception to this 
 158:Drivers/STM32F0xx_HAL_Driver/Src/stm32f0xx_hal_flash.c ****   *         is when 0x0000 is programmed)
 159:Drivers/STM32F0xx_HAL_Driver/Src/stm32f0xx_hal_flash.c ****   *
 160:Drivers/STM32F0xx_HAL_Driver/Src/stm32f0xx_hal_flash.c ****   * @param  TypeProgram   Indicate the way to program at a specified address.
 161:Drivers/STM32F0xx_HAL_Driver/Src/stm32f0xx_hal_flash.c ****   *                       This parameter can be a value of @ref FLASH_Type_Program
 162:Drivers/STM32F0xx_HAL_Driver/Src/stm32f0xx_hal_flash.c ****   * @param  Address       Specifie the address to be programmed.
 163:Drivers/STM32F0xx_HAL_Driver/Src/stm32f0xx_hal_flash.c ****   * @param  Data          Specifie the data to be programmed
 164:Drivers/STM32F0xx_HAL_Driver/Src/stm32f0xx_hal_flash.c ****   * 
 165:Drivers/STM32F0xx_HAL_Driver/Src/stm32f0xx_hal_flash.c ****   * @retval HAL_StatusTypeDef HAL Status
 166:Drivers/STM32F0xx_HAL_Driver/Src/stm32f0xx_hal_flash.c ****   */
 167:Drivers/STM32F0xx_HAL_Driver/Src/stm32f0xx_hal_flash.c **** HAL_StatusTypeDef HAL_FLASH_Program(uint32_t TypeProgram, uint32_t Address, uint64_t Data)
 168:Drivers/STM32F0xx_HAL_Driver/Src/stm32f0xx_hal_flash.c **** {
 169:Drivers/STM32F0xx_HAL_Driver/Src/stm32f0xx_hal_flash.c ****   HAL_StatusTypeDef status = HAL_ERROR;
 170:Drivers/STM32F0xx_HAL_Driver/Src/stm32f0xx_hal_flash.c ****   uint8_t index = 0U;
 171:Drivers/STM32F0xx_HAL_Driver/Src/stm32f0xx_hal_flash.c ****   uint8_t nbiterations = 0U;
 172:Drivers/STM32F0xx_HAL_Driver/Src/stm32f0xx_hal_flash.c ****   
 173:Drivers/STM32F0xx_HAL_Driver/Src/stm32f0xx_hal_flash.c ****   /* Process Locked */
 174:Drivers/STM32F0xx_HAL_Driver/Src/stm32f0xx_hal_flash.c ****   __HAL_LOCK(&pFlash);
 175:Drivers/STM32F0xx_HAL_Driver/Src/stm32f0xx_hal_flash.c **** 
 176:Drivers/STM32F0xx_HAL_Driver/Src/stm32f0xx_hal_flash.c ****   /* Check the parameters */
 177:Drivers/STM32F0xx_HAL_Driver/Src/stm32f0xx_hal_flash.c ****   assert_param(IS_FLASH_TYPEPROGRAM(TypeProgram));
 178:Drivers/STM32F0xx_HAL_Driver/Src/stm32f0xx_hal_flash.c ****   assert_param(IS_FLASH_PROGRAM_ADDRESS(Address));
 179:Drivers/STM32F0xx_HAL_Driver/Src/stm32f0xx_hal_flash.c **** 
 180:Drivers/STM32F0xx_HAL_Driver/Src/stm32f0xx_hal_flash.c ****     /* Wait for last operation to be completed */
 181:Drivers/STM32F0xx_HAL_Driver/Src/stm32f0xx_hal_flash.c ****     status = FLASH_WaitForLastOperation(FLASH_TIMEOUT_VALUE);
 182:Drivers/STM32F0xx_HAL_Driver/Src/stm32f0xx_hal_flash.c ****   
 183:Drivers/STM32F0xx_HAL_Driver/Src/stm32f0xx_hal_flash.c ****   if(status == HAL_OK)
 184:Drivers/STM32F0xx_HAL_Driver/Src/stm32f0xx_hal_flash.c ****   {
 185:Drivers/STM32F0xx_HAL_Driver/Src/stm32f0xx_hal_flash.c ****     if(TypeProgram == FLASH_TYPEPROGRAM_HALFWORD)
 186:Drivers/STM32F0xx_HAL_Driver/Src/stm32f0xx_hal_flash.c ****     {
 187:Drivers/STM32F0xx_HAL_Driver/Src/stm32f0xx_hal_flash.c ****       /* Program halfword (16-bit) at a specified address. */
 188:Drivers/STM32F0xx_HAL_Driver/Src/stm32f0xx_hal_flash.c ****       nbiterations = 1U;
 189:Drivers/STM32F0xx_HAL_Driver/Src/stm32f0xx_hal_flash.c ****     }
 190:Drivers/STM32F0xx_HAL_Driver/Src/stm32f0xx_hal_flash.c ****     else if(TypeProgram == FLASH_TYPEPROGRAM_WORD)
 191:Drivers/STM32F0xx_HAL_Driver/Src/stm32f0xx_hal_flash.c ****     {
 192:Drivers/STM32F0xx_HAL_Driver/Src/stm32f0xx_hal_flash.c ****       /* Program word (32-bit = 2*16-bit) at a specified address. */
 193:Drivers/STM32F0xx_HAL_Driver/Src/stm32f0xx_hal_flash.c ****       nbiterations = 2U;
 194:Drivers/STM32F0xx_HAL_Driver/Src/stm32f0xx_hal_flash.c ****     }
 195:Drivers/STM32F0xx_HAL_Driver/Src/stm32f0xx_hal_flash.c ****     else
 196:Drivers/STM32F0xx_HAL_Driver/Src/stm32f0xx_hal_flash.c ****     {
 197:Drivers/STM32F0xx_HAL_Driver/Src/stm32f0xx_hal_flash.c ****       /* Program double word (64-bit = 4*16-bit) at a specified address. */
 198:Drivers/STM32F0xx_HAL_Driver/Src/stm32f0xx_hal_flash.c ****       nbiterations = 4U;
 199:Drivers/STM32F0xx_HAL_Driver/Src/stm32f0xx_hal_flash.c ****     }
 200:Drivers/STM32F0xx_HAL_Driver/Src/stm32f0xx_hal_flash.c **** 
 201:Drivers/STM32F0xx_HAL_Driver/Src/stm32f0xx_hal_flash.c ****     for (index = 0U; index < nbiterations; index++)
 202:Drivers/STM32F0xx_HAL_Driver/Src/stm32f0xx_hal_flash.c ****     {
 203:Drivers/STM32F0xx_HAL_Driver/Src/stm32f0xx_hal_flash.c ****       FLASH_Program_HalfWord((Address + (2U*index)), (uint16_t)(Data >> (16U*index)));
ARM GAS  /tmp/ccTC69Sk.s 			page 5


 204:Drivers/STM32F0xx_HAL_Driver/Src/stm32f0xx_hal_flash.c **** 
 205:Drivers/STM32F0xx_HAL_Driver/Src/stm32f0xx_hal_flash.c ****         /* Wait for last operation to be completed */
 206:Drivers/STM32F0xx_HAL_Driver/Src/stm32f0xx_hal_flash.c ****         status = FLASH_WaitForLastOperation(FLASH_TIMEOUT_VALUE);
 207:Drivers/STM32F0xx_HAL_Driver/Src/stm32f0xx_hal_flash.c ****     
 208:Drivers/STM32F0xx_HAL_Driver/Src/stm32f0xx_hal_flash.c ****         /* If the program operation is completed, disable the PG Bit */
 209:Drivers/STM32F0xx_HAL_Driver/Src/stm32f0xx_hal_flash.c ****         CLEAR_BIT(FLASH->CR, FLASH_CR_PG);
 210:Drivers/STM32F0xx_HAL_Driver/Src/stm32f0xx_hal_flash.c ****       /* In case of error, stop programming procedure */
 211:Drivers/STM32F0xx_HAL_Driver/Src/stm32f0xx_hal_flash.c ****       if (status != HAL_OK)
 212:Drivers/STM32F0xx_HAL_Driver/Src/stm32f0xx_hal_flash.c ****       {
 213:Drivers/STM32F0xx_HAL_Driver/Src/stm32f0xx_hal_flash.c ****         break;
 214:Drivers/STM32F0xx_HAL_Driver/Src/stm32f0xx_hal_flash.c ****       }
 215:Drivers/STM32F0xx_HAL_Driver/Src/stm32f0xx_hal_flash.c ****     }
 216:Drivers/STM32F0xx_HAL_Driver/Src/stm32f0xx_hal_flash.c ****   }
 217:Drivers/STM32F0xx_HAL_Driver/Src/stm32f0xx_hal_flash.c **** 
 218:Drivers/STM32F0xx_HAL_Driver/Src/stm32f0xx_hal_flash.c ****   /* Process Unlocked */
 219:Drivers/STM32F0xx_HAL_Driver/Src/stm32f0xx_hal_flash.c ****   __HAL_UNLOCK(&pFlash);
 220:Drivers/STM32F0xx_HAL_Driver/Src/stm32f0xx_hal_flash.c **** 
 221:Drivers/STM32F0xx_HAL_Driver/Src/stm32f0xx_hal_flash.c ****   return status;
 222:Drivers/STM32F0xx_HAL_Driver/Src/stm32f0xx_hal_flash.c **** }
 223:Drivers/STM32F0xx_HAL_Driver/Src/stm32f0xx_hal_flash.c **** 
 224:Drivers/STM32F0xx_HAL_Driver/Src/stm32f0xx_hal_flash.c **** /**
 225:Drivers/STM32F0xx_HAL_Driver/Src/stm32f0xx_hal_flash.c ****   * @brief  Program halfword, word or double word at a specified address  with interrupt enabled.
 226:Drivers/STM32F0xx_HAL_Driver/Src/stm32f0xx_hal_flash.c ****   * @note   The function HAL_FLASH_Unlock() should be called before to unlock the FLASH interface
 227:Drivers/STM32F0xx_HAL_Driver/Src/stm32f0xx_hal_flash.c ****   *         The function HAL_FLASH_Lock() should be called after to lock the FLASH interface
 228:Drivers/STM32F0xx_HAL_Driver/Src/stm32f0xx_hal_flash.c ****   *
 229:Drivers/STM32F0xx_HAL_Driver/Src/stm32f0xx_hal_flash.c ****   * @note   If an erase and a program operations are requested simultaneously,    
 230:Drivers/STM32F0xx_HAL_Driver/Src/stm32f0xx_hal_flash.c ****   *         the erase operation is performed before the program one.
 231:Drivers/STM32F0xx_HAL_Driver/Src/stm32f0xx_hal_flash.c ****   *
 232:Drivers/STM32F0xx_HAL_Driver/Src/stm32f0xx_hal_flash.c ****   * @param  TypeProgram  Indicate the way to program at a specified address.
 233:Drivers/STM32F0xx_HAL_Driver/Src/stm32f0xx_hal_flash.c ****   *                      This parameter can be a value of @ref FLASH_Type_Program
 234:Drivers/STM32F0xx_HAL_Driver/Src/stm32f0xx_hal_flash.c ****   * @param  Address      Specifie the address to be programmed.
 235:Drivers/STM32F0xx_HAL_Driver/Src/stm32f0xx_hal_flash.c ****   * @param  Data         Specifie the data to be programmed
 236:Drivers/STM32F0xx_HAL_Driver/Src/stm32f0xx_hal_flash.c ****   * 
 237:Drivers/STM32F0xx_HAL_Driver/Src/stm32f0xx_hal_flash.c ****   * @retval HAL_StatusTypeDef HAL Status
 238:Drivers/STM32F0xx_HAL_Driver/Src/stm32f0xx_hal_flash.c ****   */
 239:Drivers/STM32F0xx_HAL_Driver/Src/stm32f0xx_hal_flash.c **** HAL_StatusTypeDef HAL_FLASH_Program_IT(uint32_t TypeProgram, uint32_t Address, uint64_t Data)
 240:Drivers/STM32F0xx_HAL_Driver/Src/stm32f0xx_hal_flash.c **** {
 241:Drivers/STM32F0xx_HAL_Driver/Src/stm32f0xx_hal_flash.c ****   HAL_StatusTypeDef status = HAL_OK;
 242:Drivers/STM32F0xx_HAL_Driver/Src/stm32f0xx_hal_flash.c ****   
 243:Drivers/STM32F0xx_HAL_Driver/Src/stm32f0xx_hal_flash.c ****   /* Process Locked */
 244:Drivers/STM32F0xx_HAL_Driver/Src/stm32f0xx_hal_flash.c ****   __HAL_LOCK(&pFlash);
 245:Drivers/STM32F0xx_HAL_Driver/Src/stm32f0xx_hal_flash.c **** 
 246:Drivers/STM32F0xx_HAL_Driver/Src/stm32f0xx_hal_flash.c ****   /* Check the parameters */
 247:Drivers/STM32F0xx_HAL_Driver/Src/stm32f0xx_hal_flash.c ****   assert_param(IS_FLASH_TYPEPROGRAM(TypeProgram));
 248:Drivers/STM32F0xx_HAL_Driver/Src/stm32f0xx_hal_flash.c ****   assert_param(IS_FLASH_PROGRAM_ADDRESS(Address));
 249:Drivers/STM32F0xx_HAL_Driver/Src/stm32f0xx_hal_flash.c **** 
 250:Drivers/STM32F0xx_HAL_Driver/Src/stm32f0xx_hal_flash.c ****   /* Enable End of FLASH Operation and Error source interrupts */
 251:Drivers/STM32F0xx_HAL_Driver/Src/stm32f0xx_hal_flash.c ****   __HAL_FLASH_ENABLE_IT(FLASH_IT_EOP | FLASH_IT_ERR);
 252:Drivers/STM32F0xx_HAL_Driver/Src/stm32f0xx_hal_flash.c ****   
 253:Drivers/STM32F0xx_HAL_Driver/Src/stm32f0xx_hal_flash.c ****   pFlash.Address = Address;
 254:Drivers/STM32F0xx_HAL_Driver/Src/stm32f0xx_hal_flash.c ****   pFlash.Data = Data;
 255:Drivers/STM32F0xx_HAL_Driver/Src/stm32f0xx_hal_flash.c **** 
 256:Drivers/STM32F0xx_HAL_Driver/Src/stm32f0xx_hal_flash.c ****   if(TypeProgram == FLASH_TYPEPROGRAM_HALFWORD)
 257:Drivers/STM32F0xx_HAL_Driver/Src/stm32f0xx_hal_flash.c ****   {
 258:Drivers/STM32F0xx_HAL_Driver/Src/stm32f0xx_hal_flash.c ****     pFlash.ProcedureOnGoing = FLASH_PROC_PROGRAMHALFWORD;
 259:Drivers/STM32F0xx_HAL_Driver/Src/stm32f0xx_hal_flash.c ****     /* Program halfword (16-bit) at a specified address. */
 260:Drivers/STM32F0xx_HAL_Driver/Src/stm32f0xx_hal_flash.c ****     pFlash.DataRemaining = 1U;
ARM GAS  /tmp/ccTC69Sk.s 			page 6


 261:Drivers/STM32F0xx_HAL_Driver/Src/stm32f0xx_hal_flash.c ****   }
 262:Drivers/STM32F0xx_HAL_Driver/Src/stm32f0xx_hal_flash.c ****   else if(TypeProgram == FLASH_TYPEPROGRAM_WORD)
 263:Drivers/STM32F0xx_HAL_Driver/Src/stm32f0xx_hal_flash.c ****   {
 264:Drivers/STM32F0xx_HAL_Driver/Src/stm32f0xx_hal_flash.c ****     pFlash.ProcedureOnGoing = FLASH_PROC_PROGRAMWORD;
 265:Drivers/STM32F0xx_HAL_Driver/Src/stm32f0xx_hal_flash.c ****     /* Program word (32-bit : 2*16-bit) at a specified address. */
 266:Drivers/STM32F0xx_HAL_Driver/Src/stm32f0xx_hal_flash.c ****     pFlash.DataRemaining = 2U;
 267:Drivers/STM32F0xx_HAL_Driver/Src/stm32f0xx_hal_flash.c ****   }
 268:Drivers/STM32F0xx_HAL_Driver/Src/stm32f0xx_hal_flash.c ****   else
 269:Drivers/STM32F0xx_HAL_Driver/Src/stm32f0xx_hal_flash.c ****   {
 270:Drivers/STM32F0xx_HAL_Driver/Src/stm32f0xx_hal_flash.c ****     pFlash.ProcedureOnGoing = FLASH_PROC_PROGRAMDOUBLEWORD;
 271:Drivers/STM32F0xx_HAL_Driver/Src/stm32f0xx_hal_flash.c ****     /* Program double word (64-bit : 4*16-bit) at a specified address. */
 272:Drivers/STM32F0xx_HAL_Driver/Src/stm32f0xx_hal_flash.c ****     pFlash.DataRemaining = 4U;
 273:Drivers/STM32F0xx_HAL_Driver/Src/stm32f0xx_hal_flash.c ****   }
 274:Drivers/STM32F0xx_HAL_Driver/Src/stm32f0xx_hal_flash.c **** 
 275:Drivers/STM32F0xx_HAL_Driver/Src/stm32f0xx_hal_flash.c ****   /* Program halfword (16-bit) at a specified address. */
 276:Drivers/STM32F0xx_HAL_Driver/Src/stm32f0xx_hal_flash.c ****   FLASH_Program_HalfWord(Address, (uint16_t)Data);
 277:Drivers/STM32F0xx_HAL_Driver/Src/stm32f0xx_hal_flash.c **** 
 278:Drivers/STM32F0xx_HAL_Driver/Src/stm32f0xx_hal_flash.c ****   return status;
 279:Drivers/STM32F0xx_HAL_Driver/Src/stm32f0xx_hal_flash.c **** }
 280:Drivers/STM32F0xx_HAL_Driver/Src/stm32f0xx_hal_flash.c **** 
 281:Drivers/STM32F0xx_HAL_Driver/Src/stm32f0xx_hal_flash.c **** /**
 282:Drivers/STM32F0xx_HAL_Driver/Src/stm32f0xx_hal_flash.c ****   * @brief This function handles FLASH interrupt request.
 283:Drivers/STM32F0xx_HAL_Driver/Src/stm32f0xx_hal_flash.c ****   * @retval None
 284:Drivers/STM32F0xx_HAL_Driver/Src/stm32f0xx_hal_flash.c ****   */
 285:Drivers/STM32F0xx_HAL_Driver/Src/stm32f0xx_hal_flash.c **** void HAL_FLASH_IRQHandler(void)
 286:Drivers/STM32F0xx_HAL_Driver/Src/stm32f0xx_hal_flash.c **** {
 287:Drivers/STM32F0xx_HAL_Driver/Src/stm32f0xx_hal_flash.c ****   uint32_t addresstmp = 0U;
 288:Drivers/STM32F0xx_HAL_Driver/Src/stm32f0xx_hal_flash.c ****   
 289:Drivers/STM32F0xx_HAL_Driver/Src/stm32f0xx_hal_flash.c ****   /* Check FLASH operation error flags */
 290:Drivers/STM32F0xx_HAL_Driver/Src/stm32f0xx_hal_flash.c ****   if(__HAL_FLASH_GET_FLAG(FLASH_FLAG_WRPERR) ||__HAL_FLASH_GET_FLAG(FLASH_FLAG_PGERR))
 291:Drivers/STM32F0xx_HAL_Driver/Src/stm32f0xx_hal_flash.c ****   {
 292:Drivers/STM32F0xx_HAL_Driver/Src/stm32f0xx_hal_flash.c ****     /* Return the faulty address */
 293:Drivers/STM32F0xx_HAL_Driver/Src/stm32f0xx_hal_flash.c ****     addresstmp = pFlash.Address;
 294:Drivers/STM32F0xx_HAL_Driver/Src/stm32f0xx_hal_flash.c ****     /* Reset address */
 295:Drivers/STM32F0xx_HAL_Driver/Src/stm32f0xx_hal_flash.c ****     pFlash.Address = 0xFFFFFFFFU;
 296:Drivers/STM32F0xx_HAL_Driver/Src/stm32f0xx_hal_flash.c ****   
 297:Drivers/STM32F0xx_HAL_Driver/Src/stm32f0xx_hal_flash.c ****     /* Save the Error code */
 298:Drivers/STM32F0xx_HAL_Driver/Src/stm32f0xx_hal_flash.c ****     FLASH_SetErrorCode();
 299:Drivers/STM32F0xx_HAL_Driver/Src/stm32f0xx_hal_flash.c ****     
 300:Drivers/STM32F0xx_HAL_Driver/Src/stm32f0xx_hal_flash.c ****     /* FLASH error interrupt user callback */
 301:Drivers/STM32F0xx_HAL_Driver/Src/stm32f0xx_hal_flash.c ****     HAL_FLASH_OperationErrorCallback(addresstmp);
 302:Drivers/STM32F0xx_HAL_Driver/Src/stm32f0xx_hal_flash.c **** 
 303:Drivers/STM32F0xx_HAL_Driver/Src/stm32f0xx_hal_flash.c ****     /* Stop the procedure ongoing */
 304:Drivers/STM32F0xx_HAL_Driver/Src/stm32f0xx_hal_flash.c ****     pFlash.ProcedureOnGoing = FLASH_PROC_NONE;
 305:Drivers/STM32F0xx_HAL_Driver/Src/stm32f0xx_hal_flash.c ****   }
 306:Drivers/STM32F0xx_HAL_Driver/Src/stm32f0xx_hal_flash.c **** 
 307:Drivers/STM32F0xx_HAL_Driver/Src/stm32f0xx_hal_flash.c ****   /* Check FLASH End of Operation flag  */
 308:Drivers/STM32F0xx_HAL_Driver/Src/stm32f0xx_hal_flash.c ****   if(__HAL_FLASH_GET_FLAG(FLASH_FLAG_EOP))
 309:Drivers/STM32F0xx_HAL_Driver/Src/stm32f0xx_hal_flash.c ****   {
 310:Drivers/STM32F0xx_HAL_Driver/Src/stm32f0xx_hal_flash.c ****     /* Clear FLASH End of Operation pending bit */
 311:Drivers/STM32F0xx_HAL_Driver/Src/stm32f0xx_hal_flash.c ****     __HAL_FLASH_CLEAR_FLAG(FLASH_FLAG_EOP);
 312:Drivers/STM32F0xx_HAL_Driver/Src/stm32f0xx_hal_flash.c ****     
 313:Drivers/STM32F0xx_HAL_Driver/Src/stm32f0xx_hal_flash.c ****     /* Process can continue only if no error detected */
 314:Drivers/STM32F0xx_HAL_Driver/Src/stm32f0xx_hal_flash.c ****     if(pFlash.ProcedureOnGoing != FLASH_PROC_NONE)
 315:Drivers/STM32F0xx_HAL_Driver/Src/stm32f0xx_hal_flash.c ****     {
 316:Drivers/STM32F0xx_HAL_Driver/Src/stm32f0xx_hal_flash.c ****       if(pFlash.ProcedureOnGoing == FLASH_PROC_PAGEERASE)
 317:Drivers/STM32F0xx_HAL_Driver/Src/stm32f0xx_hal_flash.c ****       {
ARM GAS  /tmp/ccTC69Sk.s 			page 7


 318:Drivers/STM32F0xx_HAL_Driver/Src/stm32f0xx_hal_flash.c ****         /* Nb of pages to erased can be decreased */
 319:Drivers/STM32F0xx_HAL_Driver/Src/stm32f0xx_hal_flash.c ****         pFlash.DataRemaining--;
 320:Drivers/STM32F0xx_HAL_Driver/Src/stm32f0xx_hal_flash.c **** 
 321:Drivers/STM32F0xx_HAL_Driver/Src/stm32f0xx_hal_flash.c ****         /* Check if there are still pages to erase */
 322:Drivers/STM32F0xx_HAL_Driver/Src/stm32f0xx_hal_flash.c ****         if(pFlash.DataRemaining != 0U)
 323:Drivers/STM32F0xx_HAL_Driver/Src/stm32f0xx_hal_flash.c ****         {
 324:Drivers/STM32F0xx_HAL_Driver/Src/stm32f0xx_hal_flash.c ****           addresstmp = pFlash.Address;
 325:Drivers/STM32F0xx_HAL_Driver/Src/stm32f0xx_hal_flash.c ****           /*Indicate user which sector has been erased */
 326:Drivers/STM32F0xx_HAL_Driver/Src/stm32f0xx_hal_flash.c ****           HAL_FLASH_EndOfOperationCallback(addresstmp);
 327:Drivers/STM32F0xx_HAL_Driver/Src/stm32f0xx_hal_flash.c **** 
 328:Drivers/STM32F0xx_HAL_Driver/Src/stm32f0xx_hal_flash.c ****           /*Increment sector number*/
 329:Drivers/STM32F0xx_HAL_Driver/Src/stm32f0xx_hal_flash.c ****           addresstmp = pFlash.Address + FLASH_PAGE_SIZE;
 330:Drivers/STM32F0xx_HAL_Driver/Src/stm32f0xx_hal_flash.c ****           pFlash.Address = addresstmp;
 331:Drivers/STM32F0xx_HAL_Driver/Src/stm32f0xx_hal_flash.c **** 
 332:Drivers/STM32F0xx_HAL_Driver/Src/stm32f0xx_hal_flash.c ****           /* If the erase operation is completed, disable the PER Bit */
 333:Drivers/STM32F0xx_HAL_Driver/Src/stm32f0xx_hal_flash.c ****           CLEAR_BIT(FLASH->CR, FLASH_CR_PER);
 334:Drivers/STM32F0xx_HAL_Driver/Src/stm32f0xx_hal_flash.c **** 
 335:Drivers/STM32F0xx_HAL_Driver/Src/stm32f0xx_hal_flash.c ****           FLASH_PageErase(addresstmp);
 336:Drivers/STM32F0xx_HAL_Driver/Src/stm32f0xx_hal_flash.c ****         }
 337:Drivers/STM32F0xx_HAL_Driver/Src/stm32f0xx_hal_flash.c ****         else
 338:Drivers/STM32F0xx_HAL_Driver/Src/stm32f0xx_hal_flash.c ****         {
 339:Drivers/STM32F0xx_HAL_Driver/Src/stm32f0xx_hal_flash.c ****           /* No more pages to Erase, user callback can be called. */
 340:Drivers/STM32F0xx_HAL_Driver/Src/stm32f0xx_hal_flash.c ****           /* Reset Sector and stop Erase pages procedure */
 341:Drivers/STM32F0xx_HAL_Driver/Src/stm32f0xx_hal_flash.c ****           pFlash.Address = addresstmp = 0xFFFFFFFFU;
 342:Drivers/STM32F0xx_HAL_Driver/Src/stm32f0xx_hal_flash.c ****           pFlash.ProcedureOnGoing = FLASH_PROC_NONE;
 343:Drivers/STM32F0xx_HAL_Driver/Src/stm32f0xx_hal_flash.c ****           /* FLASH EOP interrupt user callback */
 344:Drivers/STM32F0xx_HAL_Driver/Src/stm32f0xx_hal_flash.c ****           HAL_FLASH_EndOfOperationCallback(addresstmp);
 345:Drivers/STM32F0xx_HAL_Driver/Src/stm32f0xx_hal_flash.c ****         }
 346:Drivers/STM32F0xx_HAL_Driver/Src/stm32f0xx_hal_flash.c ****       }
 347:Drivers/STM32F0xx_HAL_Driver/Src/stm32f0xx_hal_flash.c ****       else if(pFlash.ProcedureOnGoing == FLASH_PROC_MASSERASE)
 348:Drivers/STM32F0xx_HAL_Driver/Src/stm32f0xx_hal_flash.c ****       {
 349:Drivers/STM32F0xx_HAL_Driver/Src/stm32f0xx_hal_flash.c ****         /* Operation is completed, disable the MER Bit */
 350:Drivers/STM32F0xx_HAL_Driver/Src/stm32f0xx_hal_flash.c ****         CLEAR_BIT(FLASH->CR, FLASH_CR_MER);
 351:Drivers/STM32F0xx_HAL_Driver/Src/stm32f0xx_hal_flash.c **** 
 352:Drivers/STM32F0xx_HAL_Driver/Src/stm32f0xx_hal_flash.c ****           /* MassErase ended. Return the selected bank */
 353:Drivers/STM32F0xx_HAL_Driver/Src/stm32f0xx_hal_flash.c ****           /* FLASH EOP interrupt user callback */
 354:Drivers/STM32F0xx_HAL_Driver/Src/stm32f0xx_hal_flash.c ****           HAL_FLASH_EndOfOperationCallback(0);
 355:Drivers/STM32F0xx_HAL_Driver/Src/stm32f0xx_hal_flash.c **** 
 356:Drivers/STM32F0xx_HAL_Driver/Src/stm32f0xx_hal_flash.c ****           /* Stop Mass Erase procedure*/
 357:Drivers/STM32F0xx_HAL_Driver/Src/stm32f0xx_hal_flash.c ****           pFlash.ProcedureOnGoing = FLASH_PROC_NONE;
 358:Drivers/STM32F0xx_HAL_Driver/Src/stm32f0xx_hal_flash.c ****         }
 359:Drivers/STM32F0xx_HAL_Driver/Src/stm32f0xx_hal_flash.c ****       else
 360:Drivers/STM32F0xx_HAL_Driver/Src/stm32f0xx_hal_flash.c ****       {
 361:Drivers/STM32F0xx_HAL_Driver/Src/stm32f0xx_hal_flash.c ****         /* Nb of 16-bit data to program can be decreased */
 362:Drivers/STM32F0xx_HAL_Driver/Src/stm32f0xx_hal_flash.c ****         pFlash.DataRemaining--;
 363:Drivers/STM32F0xx_HAL_Driver/Src/stm32f0xx_hal_flash.c ****         
 364:Drivers/STM32F0xx_HAL_Driver/Src/stm32f0xx_hal_flash.c ****         /* Check if there are still 16-bit data to program */
 365:Drivers/STM32F0xx_HAL_Driver/Src/stm32f0xx_hal_flash.c ****         if(pFlash.DataRemaining != 0U)
 366:Drivers/STM32F0xx_HAL_Driver/Src/stm32f0xx_hal_flash.c ****         {
 367:Drivers/STM32F0xx_HAL_Driver/Src/stm32f0xx_hal_flash.c ****           /* Increment address to 16-bit */
 368:Drivers/STM32F0xx_HAL_Driver/Src/stm32f0xx_hal_flash.c ****           pFlash.Address += 2;
 369:Drivers/STM32F0xx_HAL_Driver/Src/stm32f0xx_hal_flash.c ****           addresstmp = pFlash.Address;
 370:Drivers/STM32F0xx_HAL_Driver/Src/stm32f0xx_hal_flash.c ****           
 371:Drivers/STM32F0xx_HAL_Driver/Src/stm32f0xx_hal_flash.c ****           /* Shift to have next 16-bit data */
 372:Drivers/STM32F0xx_HAL_Driver/Src/stm32f0xx_hal_flash.c ****           pFlash.Data = (pFlash.Data >> 16U);
 373:Drivers/STM32F0xx_HAL_Driver/Src/stm32f0xx_hal_flash.c ****           
 374:Drivers/STM32F0xx_HAL_Driver/Src/stm32f0xx_hal_flash.c ****           /* Operation is completed, disable the PG Bit */
ARM GAS  /tmp/ccTC69Sk.s 			page 8


 375:Drivers/STM32F0xx_HAL_Driver/Src/stm32f0xx_hal_flash.c ****           CLEAR_BIT(FLASH->CR, FLASH_CR_PG);
 376:Drivers/STM32F0xx_HAL_Driver/Src/stm32f0xx_hal_flash.c **** 
 377:Drivers/STM32F0xx_HAL_Driver/Src/stm32f0xx_hal_flash.c ****           /*Program halfword (16-bit) at a specified address.*/
 378:Drivers/STM32F0xx_HAL_Driver/Src/stm32f0xx_hal_flash.c ****           FLASH_Program_HalfWord(addresstmp, (uint16_t)pFlash.Data);
 379:Drivers/STM32F0xx_HAL_Driver/Src/stm32f0xx_hal_flash.c ****         }
 380:Drivers/STM32F0xx_HAL_Driver/Src/stm32f0xx_hal_flash.c ****         else
 381:Drivers/STM32F0xx_HAL_Driver/Src/stm32f0xx_hal_flash.c ****         {
 382:Drivers/STM32F0xx_HAL_Driver/Src/stm32f0xx_hal_flash.c ****           /* Program ended. Return the selected address */
 383:Drivers/STM32F0xx_HAL_Driver/Src/stm32f0xx_hal_flash.c ****           /* FLASH EOP interrupt user callback */
 384:Drivers/STM32F0xx_HAL_Driver/Src/stm32f0xx_hal_flash.c ****           if (pFlash.ProcedureOnGoing == FLASH_PROC_PROGRAMHALFWORD)
 385:Drivers/STM32F0xx_HAL_Driver/Src/stm32f0xx_hal_flash.c ****           {
 386:Drivers/STM32F0xx_HAL_Driver/Src/stm32f0xx_hal_flash.c ****             HAL_FLASH_EndOfOperationCallback(pFlash.Address);
 387:Drivers/STM32F0xx_HAL_Driver/Src/stm32f0xx_hal_flash.c ****           }
 388:Drivers/STM32F0xx_HAL_Driver/Src/stm32f0xx_hal_flash.c ****           else if (pFlash.ProcedureOnGoing == FLASH_PROC_PROGRAMWORD)
 389:Drivers/STM32F0xx_HAL_Driver/Src/stm32f0xx_hal_flash.c ****           {
 390:Drivers/STM32F0xx_HAL_Driver/Src/stm32f0xx_hal_flash.c ****             HAL_FLASH_EndOfOperationCallback(pFlash.Address - 2U);
 391:Drivers/STM32F0xx_HAL_Driver/Src/stm32f0xx_hal_flash.c ****           }
 392:Drivers/STM32F0xx_HAL_Driver/Src/stm32f0xx_hal_flash.c ****           else 
 393:Drivers/STM32F0xx_HAL_Driver/Src/stm32f0xx_hal_flash.c ****           {
 394:Drivers/STM32F0xx_HAL_Driver/Src/stm32f0xx_hal_flash.c ****             HAL_FLASH_EndOfOperationCallback(pFlash.Address - 6U);
 395:Drivers/STM32F0xx_HAL_Driver/Src/stm32f0xx_hal_flash.c ****           }
 396:Drivers/STM32F0xx_HAL_Driver/Src/stm32f0xx_hal_flash.c ****         
 397:Drivers/STM32F0xx_HAL_Driver/Src/stm32f0xx_hal_flash.c ****           /* Reset Address and stop Program procedure */
 398:Drivers/STM32F0xx_HAL_Driver/Src/stm32f0xx_hal_flash.c ****           pFlash.Address = 0xFFFFFFFFU;
 399:Drivers/STM32F0xx_HAL_Driver/Src/stm32f0xx_hal_flash.c ****           pFlash.ProcedureOnGoing = FLASH_PROC_NONE;
 400:Drivers/STM32F0xx_HAL_Driver/Src/stm32f0xx_hal_flash.c ****         }
 401:Drivers/STM32F0xx_HAL_Driver/Src/stm32f0xx_hal_flash.c ****       }
 402:Drivers/STM32F0xx_HAL_Driver/Src/stm32f0xx_hal_flash.c ****     }
 403:Drivers/STM32F0xx_HAL_Driver/Src/stm32f0xx_hal_flash.c ****   }
 404:Drivers/STM32F0xx_HAL_Driver/Src/stm32f0xx_hal_flash.c ****   
 405:Drivers/STM32F0xx_HAL_Driver/Src/stm32f0xx_hal_flash.c **** 
 406:Drivers/STM32F0xx_HAL_Driver/Src/stm32f0xx_hal_flash.c ****   if(pFlash.ProcedureOnGoing == FLASH_PROC_NONE)
 407:Drivers/STM32F0xx_HAL_Driver/Src/stm32f0xx_hal_flash.c ****   {
 408:Drivers/STM32F0xx_HAL_Driver/Src/stm32f0xx_hal_flash.c ****     /* Operation is completed, disable the PG, PER and MER Bits */
 409:Drivers/STM32F0xx_HAL_Driver/Src/stm32f0xx_hal_flash.c ****     CLEAR_BIT(FLASH->CR, (FLASH_CR_PG | FLASH_CR_PER | FLASH_CR_MER));
 410:Drivers/STM32F0xx_HAL_Driver/Src/stm32f0xx_hal_flash.c **** 
 411:Drivers/STM32F0xx_HAL_Driver/Src/stm32f0xx_hal_flash.c ****     /* Disable End of FLASH Operation and Error source interrupts */
 412:Drivers/STM32F0xx_HAL_Driver/Src/stm32f0xx_hal_flash.c ****     __HAL_FLASH_DISABLE_IT(FLASH_IT_EOP | FLASH_IT_ERR);
 413:Drivers/STM32F0xx_HAL_Driver/Src/stm32f0xx_hal_flash.c **** 
 414:Drivers/STM32F0xx_HAL_Driver/Src/stm32f0xx_hal_flash.c ****     /* Process Unlocked */
 415:Drivers/STM32F0xx_HAL_Driver/Src/stm32f0xx_hal_flash.c ****     __HAL_UNLOCK(&pFlash);
 416:Drivers/STM32F0xx_HAL_Driver/Src/stm32f0xx_hal_flash.c ****   }
 417:Drivers/STM32F0xx_HAL_Driver/Src/stm32f0xx_hal_flash.c **** }
 418:Drivers/STM32F0xx_HAL_Driver/Src/stm32f0xx_hal_flash.c **** 
 419:Drivers/STM32F0xx_HAL_Driver/Src/stm32f0xx_hal_flash.c **** /**
 420:Drivers/STM32F0xx_HAL_Driver/Src/stm32f0xx_hal_flash.c ****   * @brief  FLASH end of operation interrupt callback
 421:Drivers/STM32F0xx_HAL_Driver/Src/stm32f0xx_hal_flash.c ****   * @param  ReturnValue The value saved in this parameter depends on the ongoing procedure
 422:Drivers/STM32F0xx_HAL_Driver/Src/stm32f0xx_hal_flash.c ****   *                 - Mass Erase: No return value expected
 423:Drivers/STM32F0xx_HAL_Driver/Src/stm32f0xx_hal_flash.c ****   *                 - Pages Erase: Address of the page which has been erased 
 424:Drivers/STM32F0xx_HAL_Driver/Src/stm32f0xx_hal_flash.c ****   *                    (if 0xFFFFFFFF, it means that all the selected pages have been erased)
 425:Drivers/STM32F0xx_HAL_Driver/Src/stm32f0xx_hal_flash.c ****   *                 - Program: Address which was selected for data program
 426:Drivers/STM32F0xx_HAL_Driver/Src/stm32f0xx_hal_flash.c ****   * @retval none
 427:Drivers/STM32F0xx_HAL_Driver/Src/stm32f0xx_hal_flash.c ****   */
 428:Drivers/STM32F0xx_HAL_Driver/Src/stm32f0xx_hal_flash.c **** __weak void HAL_FLASH_EndOfOperationCallback(uint32_t ReturnValue)
 429:Drivers/STM32F0xx_HAL_Driver/Src/stm32f0xx_hal_flash.c **** {
 430:Drivers/STM32F0xx_HAL_Driver/Src/stm32f0xx_hal_flash.c ****   /* Prevent unused argument(s) compilation warning */
 431:Drivers/STM32F0xx_HAL_Driver/Src/stm32f0xx_hal_flash.c ****   UNUSED(ReturnValue);
ARM GAS  /tmp/ccTC69Sk.s 			page 9


 432:Drivers/STM32F0xx_HAL_Driver/Src/stm32f0xx_hal_flash.c **** 
 433:Drivers/STM32F0xx_HAL_Driver/Src/stm32f0xx_hal_flash.c ****   /* NOTE : This function Should not be modified, when the callback is needed,
 434:Drivers/STM32F0xx_HAL_Driver/Src/stm32f0xx_hal_flash.c ****             the HAL_FLASH_EndOfOperationCallback could be implemented in the user file
 435:Drivers/STM32F0xx_HAL_Driver/Src/stm32f0xx_hal_flash.c ****    */ 
 436:Drivers/STM32F0xx_HAL_Driver/Src/stm32f0xx_hal_flash.c **** }
 437:Drivers/STM32F0xx_HAL_Driver/Src/stm32f0xx_hal_flash.c **** 
 438:Drivers/STM32F0xx_HAL_Driver/Src/stm32f0xx_hal_flash.c **** /**
 439:Drivers/STM32F0xx_HAL_Driver/Src/stm32f0xx_hal_flash.c ****   * @brief  FLASH operation error interrupt callback
 440:Drivers/STM32F0xx_HAL_Driver/Src/stm32f0xx_hal_flash.c ****   * @param  ReturnValue The value saved in this parameter depends on the ongoing procedure
 441:Drivers/STM32F0xx_HAL_Driver/Src/stm32f0xx_hal_flash.c ****   *                 - Mass Erase: No return value expected
 442:Drivers/STM32F0xx_HAL_Driver/Src/stm32f0xx_hal_flash.c ****   *                 - Pages Erase: Address of the page which returned an error
 443:Drivers/STM32F0xx_HAL_Driver/Src/stm32f0xx_hal_flash.c ****   *                 - Program: Address which was selected for data program
 444:Drivers/STM32F0xx_HAL_Driver/Src/stm32f0xx_hal_flash.c ****   * @retval none
 445:Drivers/STM32F0xx_HAL_Driver/Src/stm32f0xx_hal_flash.c ****   */
 446:Drivers/STM32F0xx_HAL_Driver/Src/stm32f0xx_hal_flash.c **** __weak void HAL_FLASH_OperationErrorCallback(uint32_t ReturnValue)
 447:Drivers/STM32F0xx_HAL_Driver/Src/stm32f0xx_hal_flash.c **** {
 448:Drivers/STM32F0xx_HAL_Driver/Src/stm32f0xx_hal_flash.c ****   /* Prevent unused argument(s) compilation warning */
 449:Drivers/STM32F0xx_HAL_Driver/Src/stm32f0xx_hal_flash.c ****   UNUSED(ReturnValue);
 450:Drivers/STM32F0xx_HAL_Driver/Src/stm32f0xx_hal_flash.c **** 
 451:Drivers/STM32F0xx_HAL_Driver/Src/stm32f0xx_hal_flash.c ****   /* NOTE : This function Should not be modified, when the callback is needed,
 452:Drivers/STM32F0xx_HAL_Driver/Src/stm32f0xx_hal_flash.c ****             the HAL_FLASH_OperationErrorCallback could be implemented in the user file
 453:Drivers/STM32F0xx_HAL_Driver/Src/stm32f0xx_hal_flash.c ****    */ 
 454:Drivers/STM32F0xx_HAL_Driver/Src/stm32f0xx_hal_flash.c **** }
 455:Drivers/STM32F0xx_HAL_Driver/Src/stm32f0xx_hal_flash.c **** 
 456:Drivers/STM32F0xx_HAL_Driver/Src/stm32f0xx_hal_flash.c **** /**
 457:Drivers/STM32F0xx_HAL_Driver/Src/stm32f0xx_hal_flash.c ****   * @}
 458:Drivers/STM32F0xx_HAL_Driver/Src/stm32f0xx_hal_flash.c ****   */
 459:Drivers/STM32F0xx_HAL_Driver/Src/stm32f0xx_hal_flash.c **** 
 460:Drivers/STM32F0xx_HAL_Driver/Src/stm32f0xx_hal_flash.c **** /** @defgroup FLASH_Exported_Functions_Group2 Peripheral Control functions 
 461:Drivers/STM32F0xx_HAL_Driver/Src/stm32f0xx_hal_flash.c ****  *  @brief   management functions 
 462:Drivers/STM32F0xx_HAL_Driver/Src/stm32f0xx_hal_flash.c ****  *
 463:Drivers/STM32F0xx_HAL_Driver/Src/stm32f0xx_hal_flash.c **** @verbatim   
 464:Drivers/STM32F0xx_HAL_Driver/Src/stm32f0xx_hal_flash.c ****  ===============================================================================
 465:Drivers/STM32F0xx_HAL_Driver/Src/stm32f0xx_hal_flash.c ****                       ##### Peripheral Control functions #####
 466:Drivers/STM32F0xx_HAL_Driver/Src/stm32f0xx_hal_flash.c ****  ===============================================================================  
 467:Drivers/STM32F0xx_HAL_Driver/Src/stm32f0xx_hal_flash.c ****     [..]
 468:Drivers/STM32F0xx_HAL_Driver/Src/stm32f0xx_hal_flash.c ****     This subsection provides a set of functions allowing to control the FLASH 
 469:Drivers/STM32F0xx_HAL_Driver/Src/stm32f0xx_hal_flash.c ****     memory operations.
 470:Drivers/STM32F0xx_HAL_Driver/Src/stm32f0xx_hal_flash.c **** 
 471:Drivers/STM32F0xx_HAL_Driver/Src/stm32f0xx_hal_flash.c **** @endverbatim
 472:Drivers/STM32F0xx_HAL_Driver/Src/stm32f0xx_hal_flash.c ****   * @{
 473:Drivers/STM32F0xx_HAL_Driver/Src/stm32f0xx_hal_flash.c ****   */
 474:Drivers/STM32F0xx_HAL_Driver/Src/stm32f0xx_hal_flash.c **** 
 475:Drivers/STM32F0xx_HAL_Driver/Src/stm32f0xx_hal_flash.c **** /**
 476:Drivers/STM32F0xx_HAL_Driver/Src/stm32f0xx_hal_flash.c ****   * @brief  Unlock the FLASH control register access
 477:Drivers/STM32F0xx_HAL_Driver/Src/stm32f0xx_hal_flash.c ****   * @retval HAL Status
 478:Drivers/STM32F0xx_HAL_Driver/Src/stm32f0xx_hal_flash.c ****   */
 479:Drivers/STM32F0xx_HAL_Driver/Src/stm32f0xx_hal_flash.c **** HAL_StatusTypeDef HAL_FLASH_Unlock(void)
 480:Drivers/STM32F0xx_HAL_Driver/Src/stm32f0xx_hal_flash.c **** {
 481:Drivers/STM32F0xx_HAL_Driver/Src/stm32f0xx_hal_flash.c ****   HAL_StatusTypeDef status = HAL_OK;
 482:Drivers/STM32F0xx_HAL_Driver/Src/stm32f0xx_hal_flash.c **** 
 483:Drivers/STM32F0xx_HAL_Driver/Src/stm32f0xx_hal_flash.c ****   if(READ_BIT(FLASH->CR, FLASH_CR_LOCK) != RESET)
 484:Drivers/STM32F0xx_HAL_Driver/Src/stm32f0xx_hal_flash.c ****   {
 485:Drivers/STM32F0xx_HAL_Driver/Src/stm32f0xx_hal_flash.c ****     /* Authorize the FLASH Registers access */
 486:Drivers/STM32F0xx_HAL_Driver/Src/stm32f0xx_hal_flash.c ****     WRITE_REG(FLASH->KEYR, FLASH_KEY1);
 487:Drivers/STM32F0xx_HAL_Driver/Src/stm32f0xx_hal_flash.c ****     WRITE_REG(FLASH->KEYR, FLASH_KEY2);
 488:Drivers/STM32F0xx_HAL_Driver/Src/stm32f0xx_hal_flash.c **** 
ARM GAS  /tmp/ccTC69Sk.s 			page 10


 489:Drivers/STM32F0xx_HAL_Driver/Src/stm32f0xx_hal_flash.c ****     /* Verify Flash is unlocked */
 490:Drivers/STM32F0xx_HAL_Driver/Src/stm32f0xx_hal_flash.c ****     if(READ_BIT(FLASH->CR, FLASH_CR_LOCK) != RESET)
 491:Drivers/STM32F0xx_HAL_Driver/Src/stm32f0xx_hal_flash.c ****     {
 492:Drivers/STM32F0xx_HAL_Driver/Src/stm32f0xx_hal_flash.c ****       status = HAL_ERROR;
 493:Drivers/STM32F0xx_HAL_Driver/Src/stm32f0xx_hal_flash.c ****     }
 494:Drivers/STM32F0xx_HAL_Driver/Src/stm32f0xx_hal_flash.c ****   }
 495:Drivers/STM32F0xx_HAL_Driver/Src/stm32f0xx_hal_flash.c **** 
 496:Drivers/STM32F0xx_HAL_Driver/Src/stm32f0xx_hal_flash.c ****   return status;
 497:Drivers/STM32F0xx_HAL_Driver/Src/stm32f0xx_hal_flash.c **** }
 498:Drivers/STM32F0xx_HAL_Driver/Src/stm32f0xx_hal_flash.c **** 
 499:Drivers/STM32F0xx_HAL_Driver/Src/stm32f0xx_hal_flash.c **** /**
 500:Drivers/STM32F0xx_HAL_Driver/Src/stm32f0xx_hal_flash.c ****   * @brief  Locks the FLASH control register access
 501:Drivers/STM32F0xx_HAL_Driver/Src/stm32f0xx_hal_flash.c ****   * @retval HAL Status
 502:Drivers/STM32F0xx_HAL_Driver/Src/stm32f0xx_hal_flash.c ****   */
 503:Drivers/STM32F0xx_HAL_Driver/Src/stm32f0xx_hal_flash.c **** HAL_StatusTypeDef HAL_FLASH_Lock(void)
 504:Drivers/STM32F0xx_HAL_Driver/Src/stm32f0xx_hal_flash.c **** {
 505:Drivers/STM32F0xx_HAL_Driver/Src/stm32f0xx_hal_flash.c ****   /* Set the LOCK Bit to lock the FLASH Registers access */
 506:Drivers/STM32F0xx_HAL_Driver/Src/stm32f0xx_hal_flash.c ****   SET_BIT(FLASH->CR, FLASH_CR_LOCK);
 507:Drivers/STM32F0xx_HAL_Driver/Src/stm32f0xx_hal_flash.c ****   
 508:Drivers/STM32F0xx_HAL_Driver/Src/stm32f0xx_hal_flash.c ****   return HAL_OK;  
 509:Drivers/STM32F0xx_HAL_Driver/Src/stm32f0xx_hal_flash.c **** }
 510:Drivers/STM32F0xx_HAL_Driver/Src/stm32f0xx_hal_flash.c **** 
 511:Drivers/STM32F0xx_HAL_Driver/Src/stm32f0xx_hal_flash.c **** /**
 512:Drivers/STM32F0xx_HAL_Driver/Src/stm32f0xx_hal_flash.c ****   * @brief  Unlock the FLASH Option Control Registers access.
 513:Drivers/STM32F0xx_HAL_Driver/Src/stm32f0xx_hal_flash.c ****   * @retval HAL Status
 514:Drivers/STM32F0xx_HAL_Driver/Src/stm32f0xx_hal_flash.c ****   */
 515:Drivers/STM32F0xx_HAL_Driver/Src/stm32f0xx_hal_flash.c **** HAL_StatusTypeDef HAL_FLASH_OB_Unlock(void)
 516:Drivers/STM32F0xx_HAL_Driver/Src/stm32f0xx_hal_flash.c **** {
 517:Drivers/STM32F0xx_HAL_Driver/Src/stm32f0xx_hal_flash.c ****   if (HAL_IS_BIT_CLR(FLASH->CR, FLASH_CR_OPTWRE))
 518:Drivers/STM32F0xx_HAL_Driver/Src/stm32f0xx_hal_flash.c ****   {
 519:Drivers/STM32F0xx_HAL_Driver/Src/stm32f0xx_hal_flash.c ****     /* Authorizes the Option Byte register programming */
 520:Drivers/STM32F0xx_HAL_Driver/Src/stm32f0xx_hal_flash.c ****     WRITE_REG(FLASH->OPTKEYR, FLASH_OPTKEY1);
 521:Drivers/STM32F0xx_HAL_Driver/Src/stm32f0xx_hal_flash.c ****     WRITE_REG(FLASH->OPTKEYR, FLASH_OPTKEY2);
 522:Drivers/STM32F0xx_HAL_Driver/Src/stm32f0xx_hal_flash.c ****   }
 523:Drivers/STM32F0xx_HAL_Driver/Src/stm32f0xx_hal_flash.c ****   else
 524:Drivers/STM32F0xx_HAL_Driver/Src/stm32f0xx_hal_flash.c ****   {
 525:Drivers/STM32F0xx_HAL_Driver/Src/stm32f0xx_hal_flash.c ****     return HAL_ERROR;
 526:Drivers/STM32F0xx_HAL_Driver/Src/stm32f0xx_hal_flash.c ****   }  
 527:Drivers/STM32F0xx_HAL_Driver/Src/stm32f0xx_hal_flash.c ****   
 528:Drivers/STM32F0xx_HAL_Driver/Src/stm32f0xx_hal_flash.c ****   return HAL_OK;  
 529:Drivers/STM32F0xx_HAL_Driver/Src/stm32f0xx_hal_flash.c **** }
 530:Drivers/STM32F0xx_HAL_Driver/Src/stm32f0xx_hal_flash.c **** 
 531:Drivers/STM32F0xx_HAL_Driver/Src/stm32f0xx_hal_flash.c **** /**
 532:Drivers/STM32F0xx_HAL_Driver/Src/stm32f0xx_hal_flash.c ****   * @brief  Lock the FLASH Option Control Registers access.
 533:Drivers/STM32F0xx_HAL_Driver/Src/stm32f0xx_hal_flash.c ****   * @retval HAL Status 
 534:Drivers/STM32F0xx_HAL_Driver/Src/stm32f0xx_hal_flash.c ****   */
 535:Drivers/STM32F0xx_HAL_Driver/Src/stm32f0xx_hal_flash.c **** HAL_StatusTypeDef HAL_FLASH_OB_Lock(void)
 536:Drivers/STM32F0xx_HAL_Driver/Src/stm32f0xx_hal_flash.c **** {
 537:Drivers/STM32F0xx_HAL_Driver/Src/stm32f0xx_hal_flash.c ****   /* Clear the OPTWRE Bit to lock the FLASH Option Byte Registers access */
 538:Drivers/STM32F0xx_HAL_Driver/Src/stm32f0xx_hal_flash.c ****   CLEAR_BIT(FLASH->CR, FLASH_CR_OPTWRE);
 539:Drivers/STM32F0xx_HAL_Driver/Src/stm32f0xx_hal_flash.c ****   
 540:Drivers/STM32F0xx_HAL_Driver/Src/stm32f0xx_hal_flash.c ****   return HAL_OK;  
 541:Drivers/STM32F0xx_HAL_Driver/Src/stm32f0xx_hal_flash.c **** }
 542:Drivers/STM32F0xx_HAL_Driver/Src/stm32f0xx_hal_flash.c ****   
 543:Drivers/STM32F0xx_HAL_Driver/Src/stm32f0xx_hal_flash.c **** /**
 544:Drivers/STM32F0xx_HAL_Driver/Src/stm32f0xx_hal_flash.c ****   * @brief  Launch the option byte loading.
 545:Drivers/STM32F0xx_HAL_Driver/Src/stm32f0xx_hal_flash.c ****   * @note   This function will reset automatically the MCU.
ARM GAS  /tmp/ccTC69Sk.s 			page 11


 546:Drivers/STM32F0xx_HAL_Driver/Src/stm32f0xx_hal_flash.c ****   * @retval HAL Status
 547:Drivers/STM32F0xx_HAL_Driver/Src/stm32f0xx_hal_flash.c ****   */
 548:Drivers/STM32F0xx_HAL_Driver/Src/stm32f0xx_hal_flash.c **** HAL_StatusTypeDef HAL_FLASH_OB_Launch(void)
 549:Drivers/STM32F0xx_HAL_Driver/Src/stm32f0xx_hal_flash.c **** {
 550:Drivers/STM32F0xx_HAL_Driver/Src/stm32f0xx_hal_flash.c ****   /* Set the OBL_Launch bit to launch the option byte loading */
 551:Drivers/STM32F0xx_HAL_Driver/Src/stm32f0xx_hal_flash.c ****   SET_BIT(FLASH->CR, FLASH_CR_OBL_LAUNCH);
 552:Drivers/STM32F0xx_HAL_Driver/Src/stm32f0xx_hal_flash.c ****   
 553:Drivers/STM32F0xx_HAL_Driver/Src/stm32f0xx_hal_flash.c ****   /* Wait for last operation to be completed */
 554:Drivers/STM32F0xx_HAL_Driver/Src/stm32f0xx_hal_flash.c ****   return(FLASH_WaitForLastOperation(FLASH_TIMEOUT_VALUE));
 555:Drivers/STM32F0xx_HAL_Driver/Src/stm32f0xx_hal_flash.c **** }
 556:Drivers/STM32F0xx_HAL_Driver/Src/stm32f0xx_hal_flash.c **** 
 557:Drivers/STM32F0xx_HAL_Driver/Src/stm32f0xx_hal_flash.c **** /**
 558:Drivers/STM32F0xx_HAL_Driver/Src/stm32f0xx_hal_flash.c ****   * @}
 559:Drivers/STM32F0xx_HAL_Driver/Src/stm32f0xx_hal_flash.c ****   */  
 560:Drivers/STM32F0xx_HAL_Driver/Src/stm32f0xx_hal_flash.c **** 
 561:Drivers/STM32F0xx_HAL_Driver/Src/stm32f0xx_hal_flash.c **** /** @defgroup FLASH_Exported_Functions_Group3 Peripheral errors functions 
 562:Drivers/STM32F0xx_HAL_Driver/Src/stm32f0xx_hal_flash.c ****  *  @brief    Peripheral errors functions 
 563:Drivers/STM32F0xx_HAL_Driver/Src/stm32f0xx_hal_flash.c ****  *
 564:Drivers/STM32F0xx_HAL_Driver/Src/stm32f0xx_hal_flash.c **** @verbatim   
 565:Drivers/STM32F0xx_HAL_Driver/Src/stm32f0xx_hal_flash.c ****  ===============================================================================
 566:Drivers/STM32F0xx_HAL_Driver/Src/stm32f0xx_hal_flash.c ****                       ##### Peripheral Errors functions #####
 567:Drivers/STM32F0xx_HAL_Driver/Src/stm32f0xx_hal_flash.c ****  ===============================================================================  
 568:Drivers/STM32F0xx_HAL_Driver/Src/stm32f0xx_hal_flash.c ****     [..]
 569:Drivers/STM32F0xx_HAL_Driver/Src/stm32f0xx_hal_flash.c ****     This subsection permit to get in run-time errors of  the FLASH peripheral.
 570:Drivers/STM32F0xx_HAL_Driver/Src/stm32f0xx_hal_flash.c **** 
 571:Drivers/STM32F0xx_HAL_Driver/Src/stm32f0xx_hal_flash.c **** @endverbatim
 572:Drivers/STM32F0xx_HAL_Driver/Src/stm32f0xx_hal_flash.c ****   * @{
 573:Drivers/STM32F0xx_HAL_Driver/Src/stm32f0xx_hal_flash.c ****   */
 574:Drivers/STM32F0xx_HAL_Driver/Src/stm32f0xx_hal_flash.c **** 
 575:Drivers/STM32F0xx_HAL_Driver/Src/stm32f0xx_hal_flash.c **** /**
 576:Drivers/STM32F0xx_HAL_Driver/Src/stm32f0xx_hal_flash.c ****   * @brief  Get the specific FLASH error flag.
 577:Drivers/STM32F0xx_HAL_Driver/Src/stm32f0xx_hal_flash.c ****   * @retval FLASH_ErrorCode The returned value can be:
 578:Drivers/STM32F0xx_HAL_Driver/Src/stm32f0xx_hal_flash.c ****   *            @ref FLASH_Error_Codes
 579:Drivers/STM32F0xx_HAL_Driver/Src/stm32f0xx_hal_flash.c ****   */
 580:Drivers/STM32F0xx_HAL_Driver/Src/stm32f0xx_hal_flash.c **** uint32_t HAL_FLASH_GetError(void)
 581:Drivers/STM32F0xx_HAL_Driver/Src/stm32f0xx_hal_flash.c **** {
 582:Drivers/STM32F0xx_HAL_Driver/Src/stm32f0xx_hal_flash.c ****    return pFlash.ErrorCode;
 583:Drivers/STM32F0xx_HAL_Driver/Src/stm32f0xx_hal_flash.c **** }
 584:Drivers/STM32F0xx_HAL_Driver/Src/stm32f0xx_hal_flash.c **** 
 585:Drivers/STM32F0xx_HAL_Driver/Src/stm32f0xx_hal_flash.c **** /**
 586:Drivers/STM32F0xx_HAL_Driver/Src/stm32f0xx_hal_flash.c ****   * @}
 587:Drivers/STM32F0xx_HAL_Driver/Src/stm32f0xx_hal_flash.c ****   */
 588:Drivers/STM32F0xx_HAL_Driver/Src/stm32f0xx_hal_flash.c **** 
 589:Drivers/STM32F0xx_HAL_Driver/Src/stm32f0xx_hal_flash.c **** /**
 590:Drivers/STM32F0xx_HAL_Driver/Src/stm32f0xx_hal_flash.c ****   * @}
 591:Drivers/STM32F0xx_HAL_Driver/Src/stm32f0xx_hal_flash.c ****   */
 592:Drivers/STM32F0xx_HAL_Driver/Src/stm32f0xx_hal_flash.c **** 
 593:Drivers/STM32F0xx_HAL_Driver/Src/stm32f0xx_hal_flash.c **** /** @addtogroup FLASH_Private_Functions
 594:Drivers/STM32F0xx_HAL_Driver/Src/stm32f0xx_hal_flash.c ****  * @{
 595:Drivers/STM32F0xx_HAL_Driver/Src/stm32f0xx_hal_flash.c ****  */
 596:Drivers/STM32F0xx_HAL_Driver/Src/stm32f0xx_hal_flash.c **** 
 597:Drivers/STM32F0xx_HAL_Driver/Src/stm32f0xx_hal_flash.c **** /**
 598:Drivers/STM32F0xx_HAL_Driver/Src/stm32f0xx_hal_flash.c ****   * @brief  Program a half-word (16-bit) at a specified address.
 599:Drivers/STM32F0xx_HAL_Driver/Src/stm32f0xx_hal_flash.c ****   * @param  Address specify the address to be programmed.
 600:Drivers/STM32F0xx_HAL_Driver/Src/stm32f0xx_hal_flash.c ****   * @param  Data    specify the data to be programmed.
 601:Drivers/STM32F0xx_HAL_Driver/Src/stm32f0xx_hal_flash.c ****   * @retval None
 602:Drivers/STM32F0xx_HAL_Driver/Src/stm32f0xx_hal_flash.c ****   */
ARM GAS  /tmp/ccTC69Sk.s 			page 12


 603:Drivers/STM32F0xx_HAL_Driver/Src/stm32f0xx_hal_flash.c **** static void FLASH_Program_HalfWord(uint32_t Address, uint16_t Data)
 604:Drivers/STM32F0xx_HAL_Driver/Src/stm32f0xx_hal_flash.c **** {
  27              		.loc 1 604 1 view -0
  28              		.cfi_startproc
  29              		@ args = 0, pretend = 0, frame = 0
  30              		@ frame_needed = 0, uses_anonymous_args = 0
  31              		.loc 1 604 1 is_stmt 0 view .LVU1
  32 0000 10B5     		push	{r4, lr}
  33              	.LCFI0:
  34              		.cfi_def_cfa_offset 8
  35              		.cfi_offset 4, -8
  36              		.cfi_offset 14, -4
 605:Drivers/STM32F0xx_HAL_Driver/Src/stm32f0xx_hal_flash.c ****   /* Clean the error context */
 606:Drivers/STM32F0xx_HAL_Driver/Src/stm32f0xx_hal_flash.c ****   pFlash.ErrorCode = HAL_FLASH_ERROR_NONE;
  37              		.loc 1 606 3 is_stmt 1 view .LVU2
  38              		.loc 1 606 20 is_stmt 0 view .LVU3
  39 0002 054B     		ldr	r3, .L2
  40 0004 0022     		movs	r2, #0
  41 0006 DA61     		str	r2, [r3, #28]
 607:Drivers/STM32F0xx_HAL_Driver/Src/stm32f0xx_hal_flash.c ****   
 608:Drivers/STM32F0xx_HAL_Driver/Src/stm32f0xx_hal_flash.c ****     /* Proceed to program the new data */
 609:Drivers/STM32F0xx_HAL_Driver/Src/stm32f0xx_hal_flash.c ****     SET_BIT(FLASH->CR, FLASH_CR_PG);
  42              		.loc 1 609 5 is_stmt 1 view .LVU4
  43 0008 044A     		ldr	r2, .L2+4
  44 000a 1369     		ldr	r3, [r2, #16]
  45 000c 0124     		movs	r4, #1
  46 000e 2343     		orrs	r3, r4
  47 0010 1361     		str	r3, [r2, #16]
 610:Drivers/STM32F0xx_HAL_Driver/Src/stm32f0xx_hal_flash.c **** 
 611:Drivers/STM32F0xx_HAL_Driver/Src/stm32f0xx_hal_flash.c ****   /* Write data in the address */
 612:Drivers/STM32F0xx_HAL_Driver/Src/stm32f0xx_hal_flash.c ****   *(__IO uint16_t*)Address = Data;
  48              		.loc 1 612 3 view .LVU5
  49              		.loc 1 612 28 is_stmt 0 view .LVU6
  50 0012 0180     		strh	r1, [r0]
 613:Drivers/STM32F0xx_HAL_Driver/Src/stm32f0xx_hal_flash.c **** }
  51              		.loc 1 613 1 view .LVU7
  52              		@ sp needed
  53 0014 10BD     		pop	{r4, pc}
  54              	.L3:
  55 0016 C046     		.align	2
  56              	.L2:
  57 0018 00000000 		.word	.LANCHOR0
  58 001c 00200240 		.word	1073881088
  59              		.cfi_endproc
  60              	.LFE51:
  62              		.section	.text.FLASH_SetErrorCode,"ax",%progbits
  63              		.align	1
  64              		.syntax unified
  65              		.code	16
  66              		.thumb_func
  67              		.fpu softvfp
  69              	FLASH_SetErrorCode:
  70              	.LFB53:
 614:Drivers/STM32F0xx_HAL_Driver/Src/stm32f0xx_hal_flash.c **** 
 615:Drivers/STM32F0xx_HAL_Driver/Src/stm32f0xx_hal_flash.c **** /**
 616:Drivers/STM32F0xx_HAL_Driver/Src/stm32f0xx_hal_flash.c ****   * @brief  Wait for a FLASH operation to complete.
 617:Drivers/STM32F0xx_HAL_Driver/Src/stm32f0xx_hal_flash.c ****   * @param  Timeout  maximum flash operation timeout
ARM GAS  /tmp/ccTC69Sk.s 			page 13


 618:Drivers/STM32F0xx_HAL_Driver/Src/stm32f0xx_hal_flash.c ****   * @retval HAL Status
 619:Drivers/STM32F0xx_HAL_Driver/Src/stm32f0xx_hal_flash.c ****   */
 620:Drivers/STM32F0xx_HAL_Driver/Src/stm32f0xx_hal_flash.c **** HAL_StatusTypeDef FLASH_WaitForLastOperation(uint32_t Timeout)
 621:Drivers/STM32F0xx_HAL_Driver/Src/stm32f0xx_hal_flash.c **** {
 622:Drivers/STM32F0xx_HAL_Driver/Src/stm32f0xx_hal_flash.c ****   /* Wait for the FLASH operation to complete by polling on BUSY flag to be reset.
 623:Drivers/STM32F0xx_HAL_Driver/Src/stm32f0xx_hal_flash.c ****      Even if the FLASH operation fails, the BUSY flag will be reset and an error
 624:Drivers/STM32F0xx_HAL_Driver/Src/stm32f0xx_hal_flash.c ****      flag will be set */
 625:Drivers/STM32F0xx_HAL_Driver/Src/stm32f0xx_hal_flash.c ****      
 626:Drivers/STM32F0xx_HAL_Driver/Src/stm32f0xx_hal_flash.c ****   uint32_t tickstart = HAL_GetTick();
 627:Drivers/STM32F0xx_HAL_Driver/Src/stm32f0xx_hal_flash.c ****      
 628:Drivers/STM32F0xx_HAL_Driver/Src/stm32f0xx_hal_flash.c ****   while(__HAL_FLASH_GET_FLAG(FLASH_FLAG_BSY)) 
 629:Drivers/STM32F0xx_HAL_Driver/Src/stm32f0xx_hal_flash.c ****   { 
 630:Drivers/STM32F0xx_HAL_Driver/Src/stm32f0xx_hal_flash.c ****     if (Timeout != HAL_MAX_DELAY)
 631:Drivers/STM32F0xx_HAL_Driver/Src/stm32f0xx_hal_flash.c ****     {
 632:Drivers/STM32F0xx_HAL_Driver/Src/stm32f0xx_hal_flash.c ****       if((Timeout == 0U) || ((HAL_GetTick()-tickstart) > Timeout))
 633:Drivers/STM32F0xx_HAL_Driver/Src/stm32f0xx_hal_flash.c ****       {
 634:Drivers/STM32F0xx_HAL_Driver/Src/stm32f0xx_hal_flash.c ****         return HAL_TIMEOUT;
 635:Drivers/STM32F0xx_HAL_Driver/Src/stm32f0xx_hal_flash.c ****       }
 636:Drivers/STM32F0xx_HAL_Driver/Src/stm32f0xx_hal_flash.c ****     }
 637:Drivers/STM32F0xx_HAL_Driver/Src/stm32f0xx_hal_flash.c ****   }
 638:Drivers/STM32F0xx_HAL_Driver/Src/stm32f0xx_hal_flash.c ****   
 639:Drivers/STM32F0xx_HAL_Driver/Src/stm32f0xx_hal_flash.c ****   /* Check FLASH End of Operation flag  */
 640:Drivers/STM32F0xx_HAL_Driver/Src/stm32f0xx_hal_flash.c ****   if (__HAL_FLASH_GET_FLAG(FLASH_FLAG_EOP))
 641:Drivers/STM32F0xx_HAL_Driver/Src/stm32f0xx_hal_flash.c ****   {
 642:Drivers/STM32F0xx_HAL_Driver/Src/stm32f0xx_hal_flash.c ****     /* Clear FLASH End of Operation pending bit */
 643:Drivers/STM32F0xx_HAL_Driver/Src/stm32f0xx_hal_flash.c ****     __HAL_FLASH_CLEAR_FLAG(FLASH_FLAG_EOP);
 644:Drivers/STM32F0xx_HAL_Driver/Src/stm32f0xx_hal_flash.c ****   }
 645:Drivers/STM32F0xx_HAL_Driver/Src/stm32f0xx_hal_flash.c ****   
 646:Drivers/STM32F0xx_HAL_Driver/Src/stm32f0xx_hal_flash.c ****   if(__HAL_FLASH_GET_FLAG(FLASH_FLAG_WRPERR)  || 
 647:Drivers/STM32F0xx_HAL_Driver/Src/stm32f0xx_hal_flash.c ****      __HAL_FLASH_GET_FLAG(FLASH_FLAG_PGERR))
 648:Drivers/STM32F0xx_HAL_Driver/Src/stm32f0xx_hal_flash.c ****   {
 649:Drivers/STM32F0xx_HAL_Driver/Src/stm32f0xx_hal_flash.c ****     /*Save the error code*/
 650:Drivers/STM32F0xx_HAL_Driver/Src/stm32f0xx_hal_flash.c ****     FLASH_SetErrorCode();
 651:Drivers/STM32F0xx_HAL_Driver/Src/stm32f0xx_hal_flash.c ****     return HAL_ERROR;
 652:Drivers/STM32F0xx_HAL_Driver/Src/stm32f0xx_hal_flash.c ****   }
 653:Drivers/STM32F0xx_HAL_Driver/Src/stm32f0xx_hal_flash.c **** 
 654:Drivers/STM32F0xx_HAL_Driver/Src/stm32f0xx_hal_flash.c ****   /* There is no error flag set */
 655:Drivers/STM32F0xx_HAL_Driver/Src/stm32f0xx_hal_flash.c ****   return HAL_OK;
 656:Drivers/STM32F0xx_HAL_Driver/Src/stm32f0xx_hal_flash.c **** }
 657:Drivers/STM32F0xx_HAL_Driver/Src/stm32f0xx_hal_flash.c **** 
 658:Drivers/STM32F0xx_HAL_Driver/Src/stm32f0xx_hal_flash.c **** 
 659:Drivers/STM32F0xx_HAL_Driver/Src/stm32f0xx_hal_flash.c **** /**
 660:Drivers/STM32F0xx_HAL_Driver/Src/stm32f0xx_hal_flash.c ****   * @brief  Set the specific FLASH error flag.
 661:Drivers/STM32F0xx_HAL_Driver/Src/stm32f0xx_hal_flash.c ****   * @retval None
 662:Drivers/STM32F0xx_HAL_Driver/Src/stm32f0xx_hal_flash.c ****   */
 663:Drivers/STM32F0xx_HAL_Driver/Src/stm32f0xx_hal_flash.c **** static void FLASH_SetErrorCode(void)
 664:Drivers/STM32F0xx_HAL_Driver/Src/stm32f0xx_hal_flash.c **** {
  71              		.loc 1 664 1 is_stmt 1 view -0
  72              		.cfi_startproc
  73              		@ args = 0, pretend = 0, frame = 0
  74              		@ frame_needed = 0, uses_anonymous_args = 0
  75              		@ link register save eliminated.
 665:Drivers/STM32F0xx_HAL_Driver/Src/stm32f0xx_hal_flash.c ****   uint32_t flags = 0U;
  76              		.loc 1 665 3 view .LVU9
  77              	.LVL1:
 666:Drivers/STM32F0xx_HAL_Driver/Src/stm32f0xx_hal_flash.c ****   
 667:Drivers/STM32F0xx_HAL_Driver/Src/stm32f0xx_hal_flash.c ****   if(__HAL_FLASH_GET_FLAG(FLASH_FLAG_WRPERR))
ARM GAS  /tmp/ccTC69Sk.s 			page 14


  78              		.loc 1 667 3 view .LVU10
  79              		.loc 1 667 6 is_stmt 0 view .LVU11
  80 0000 0D4B     		ldr	r3, .L7
  81 0002 DA68     		ldr	r2, [r3, #12]
  82 0004 1021     		movs	r1, #16
  83 0006 0B00     		movs	r3, r1
  84 0008 1340     		ands	r3, r2
  85              		.loc 1 667 5 view .LVU12
  86 000a 1142     		tst	r1, r2
  87 000c 05D0     		beq	.L5
 668:Drivers/STM32F0xx_HAL_Driver/Src/stm32f0xx_hal_flash.c ****   {
 669:Drivers/STM32F0xx_HAL_Driver/Src/stm32f0xx_hal_flash.c ****     pFlash.ErrorCode |= HAL_FLASH_ERROR_WRP;
  88              		.loc 1 669 5 is_stmt 1 view .LVU13
  89              		.loc 1 669 22 is_stmt 0 view .LVU14
  90 000e 0B4A     		ldr	r2, .L7+4
  91 0010 D369     		ldr	r3, [r2, #28]
  92 0012 0E39     		subs	r1, r1, #14
  93 0014 0B43     		orrs	r3, r1
  94 0016 D361     		str	r3, [r2, #28]
 670:Drivers/STM32F0xx_HAL_Driver/Src/stm32f0xx_hal_flash.c ****     flags |= FLASH_FLAG_WRPERR;
  95              		.loc 1 670 5 is_stmt 1 view .LVU15
  96              	.LVL2:
  97              		.loc 1 670 11 is_stmt 0 view .LVU16
  98 0018 1023     		movs	r3, #16
  99              	.LVL3:
 100              	.L5:
 671:Drivers/STM32F0xx_HAL_Driver/Src/stm32f0xx_hal_flash.c ****   }
 672:Drivers/STM32F0xx_HAL_Driver/Src/stm32f0xx_hal_flash.c ****   if(__HAL_FLASH_GET_FLAG(FLASH_FLAG_PGERR))
 101              		.loc 1 672 3 is_stmt 1 view .LVU17
 102              		.loc 1 672 6 is_stmt 0 view .LVU18
 103 001a 074A     		ldr	r2, .L7
 104 001c D268     		ldr	r2, [r2, #12]
 105              		.loc 1 672 5 view .LVU19
 106 001e 5207     		lsls	r2, r2, #29
 107 0020 06D5     		bpl	.L6
 673:Drivers/STM32F0xx_HAL_Driver/Src/stm32f0xx_hal_flash.c ****   {
 674:Drivers/STM32F0xx_HAL_Driver/Src/stm32f0xx_hal_flash.c ****     pFlash.ErrorCode |= HAL_FLASH_ERROR_PROG;
 108              		.loc 1 674 5 is_stmt 1 view .LVU20
 109              		.loc 1 674 22 is_stmt 0 view .LVU21
 110 0022 0649     		ldr	r1, .L7+4
 111 0024 CA69     		ldr	r2, [r1, #28]
 112 0026 0120     		movs	r0, #1
 113 0028 0243     		orrs	r2, r0
 114 002a CA61     		str	r2, [r1, #28]
 675:Drivers/STM32F0xx_HAL_Driver/Src/stm32f0xx_hal_flash.c ****     flags |= FLASH_FLAG_PGERR;
 115              		.loc 1 675 5 is_stmt 1 view .LVU22
 116              		.loc 1 675 11 is_stmt 0 view .LVU23
 117 002c 0422     		movs	r2, #4
 118 002e 1343     		orrs	r3, r2
 119              	.LVL4:
 120              	.L6:
 676:Drivers/STM32F0xx_HAL_Driver/Src/stm32f0xx_hal_flash.c ****   }
 677:Drivers/STM32F0xx_HAL_Driver/Src/stm32f0xx_hal_flash.c ****   /* Clear FLASH error pending bits */
 678:Drivers/STM32F0xx_HAL_Driver/Src/stm32f0xx_hal_flash.c ****   __HAL_FLASH_CLEAR_FLAG(flags);
 121              		.loc 1 678 3 is_stmt 1 view .LVU24
 122 0030 014A     		ldr	r2, .L7
 123 0032 D360     		str	r3, [r2, #12]
ARM GAS  /tmp/ccTC69Sk.s 			page 15


 679:Drivers/STM32F0xx_HAL_Driver/Src/stm32f0xx_hal_flash.c **** }  
 124              		.loc 1 679 1 is_stmt 0 view .LVU25
 125              		@ sp needed
 126 0034 7047     		bx	lr
 127              	.L8:
 128 0036 C046     		.align	2
 129              	.L7:
 130 0038 00200240 		.word	1073881088
 131 003c 00000000 		.word	.LANCHOR0
 132              		.cfi_endproc
 133              	.LFE53:
 135              		.section	.text.HAL_FLASH_Program_IT,"ax",%progbits
 136              		.align	1
 137              		.global	HAL_FLASH_Program_IT
 138              		.syntax unified
 139              		.code	16
 140              		.thumb_func
 141              		.fpu softvfp
 143              	HAL_FLASH_Program_IT:
 144              	.LVL5:
 145              	.LFB41:
 240:Drivers/STM32F0xx_HAL_Driver/Src/stm32f0xx_hal_flash.c ****   HAL_StatusTypeDef status = HAL_OK;
 146              		.loc 1 240 1 is_stmt 1 view -0
 147              		.cfi_startproc
 148              		@ args = 0, pretend = 0, frame = 0
 149              		@ frame_needed = 0, uses_anonymous_args = 0
 240:Drivers/STM32F0xx_HAL_Driver/Src/stm32f0xx_hal_flash.c ****   HAL_StatusTypeDef status = HAL_OK;
 150              		.loc 1 240 1 is_stmt 0 view .LVU27
 151 0000 F8B5     		push	{r3, r4, r5, r6, r7, lr}
 152              	.LCFI1:
 153              		.cfi_def_cfa_offset 24
 154              		.cfi_offset 3, -24
 155              		.cfi_offset 4, -20
 156              		.cfi_offset 5, -16
 157              		.cfi_offset 6, -12
 158              		.cfi_offset 7, -8
 159              		.cfi_offset 14, -4
 160 0002 0600     		movs	r6, r0
 161 0004 0800     		movs	r0, r1
 162              	.LVL6:
 240:Drivers/STM32F0xx_HAL_Driver/Src/stm32f0xx_hal_flash.c ****   HAL_StatusTypeDef status = HAL_OK;
 163              		.loc 1 240 1 view .LVU28
 164 0006 1400     		movs	r4, r2
 165 0008 1D00     		movs	r5, r3
 241:Drivers/STM32F0xx_HAL_Driver/Src/stm32f0xx_hal_flash.c ****   
 166              		.loc 1 241 3 is_stmt 1 view .LVU29
 167              	.LVL7:
 244:Drivers/STM32F0xx_HAL_Driver/Src/stm32f0xx_hal_flash.c **** 
 168              		.loc 1 244 3 view .LVU30
 244:Drivers/STM32F0xx_HAL_Driver/Src/stm32f0xx_hal_flash.c **** 
 169              		.loc 1 244 3 view .LVU31
 170 000a 154B     		ldr	r3, .L17
 171 000c 1B7E     		ldrb	r3, [r3, #24]
 172 000e 012B     		cmp	r3, #1
 173 0010 24D0     		beq	.L14
 244:Drivers/STM32F0xx_HAL_Driver/Src/stm32f0xx_hal_flash.c **** 
 174              		.loc 1 244 3 discriminator 2 view .LVU32
ARM GAS  /tmp/ccTC69Sk.s 			page 16


 175 0012 134B     		ldr	r3, .L17
 176 0014 0122     		movs	r2, #1
 177              	.LVL8:
 244:Drivers/STM32F0xx_HAL_Driver/Src/stm32f0xx_hal_flash.c **** 
 178              		.loc 1 244 3 is_stmt 0 discriminator 2 view .LVU33
 179 0016 1A76     		strb	r2, [r3, #24]
 244:Drivers/STM32F0xx_HAL_Driver/Src/stm32f0xx_hal_flash.c **** 
 180              		.loc 1 244 3 is_stmt 1 discriminator 2 view .LVU34
 247:Drivers/STM32F0xx_HAL_Driver/Src/stm32f0xx_hal_flash.c ****   assert_param(IS_FLASH_PROGRAM_ADDRESS(Address));
 181              		.loc 1 247 3 discriminator 2 view .LVU35
 248:Drivers/STM32F0xx_HAL_Driver/Src/stm32f0xx_hal_flash.c **** 
 182              		.loc 1 248 3 discriminator 2 view .LVU36
 251:Drivers/STM32F0xx_HAL_Driver/Src/stm32f0xx_hal_flash.c ****   
 183              		.loc 1 251 3 discriminator 2 view .LVU37
 184 0018 1249     		ldr	r1, .L17+4
 185              	.LVL9:
 251:Drivers/STM32F0xx_HAL_Driver/Src/stm32f0xx_hal_flash.c ****   
 186              		.loc 1 251 3 is_stmt 0 discriminator 2 view .LVU38
 187 001a 0F69     		ldr	r7, [r1, #16]
 188 001c A022     		movs	r2, #160
 189 001e 5201     		lsls	r2, r2, #5
 190 0020 3A43     		orrs	r2, r7
 191 0022 0A61     		str	r2, [r1, #16]
 253:Drivers/STM32F0xx_HAL_Driver/Src/stm32f0xx_hal_flash.c ****   pFlash.Data = Data;
 192              		.loc 1 253 3 is_stmt 1 discriminator 2 view .LVU39
 253:Drivers/STM32F0xx_HAL_Driver/Src/stm32f0xx_hal_flash.c ****   pFlash.Data = Data;
 193              		.loc 1 253 18 is_stmt 0 discriminator 2 view .LVU40
 194 0024 9860     		str	r0, [r3, #8]
 254:Drivers/STM32F0xx_HAL_Driver/Src/stm32f0xx_hal_flash.c **** 
 195              		.loc 1 254 3 is_stmt 1 discriminator 2 view .LVU41
 254:Drivers/STM32F0xx_HAL_Driver/Src/stm32f0xx_hal_flash.c **** 
 196              		.loc 1 254 15 is_stmt 0 discriminator 2 view .LVU42
 197 0026 1C61     		str	r4, [r3, #16]
 198 0028 5D61     		str	r5, [r3, #20]
 256:Drivers/STM32F0xx_HAL_Driver/Src/stm32f0xx_hal_flash.c ****   {
 199              		.loc 1 256 3 is_stmt 1 discriminator 2 view .LVU43
 256:Drivers/STM32F0xx_HAL_Driver/Src/stm32f0xx_hal_flash.c ****   {
 200              		.loc 1 256 5 is_stmt 0 discriminator 2 view .LVU44
 201 002a 012E     		cmp	r6, #1
 202 002c 0BD0     		beq	.L15
 262:Drivers/STM32F0xx_HAL_Driver/Src/stm32f0xx_hal_flash.c ****   {
 203              		.loc 1 262 8 is_stmt 1 view .LVU45
 262:Drivers/STM32F0xx_HAL_Driver/Src/stm32f0xx_hal_flash.c ****   {
 204              		.loc 1 262 10 is_stmt 0 view .LVU46
 205 002e 022E     		cmp	r6, #2
 206 0030 0ED0     		beq	.L16
 270:Drivers/STM32F0xx_HAL_Driver/Src/stm32f0xx_hal_flash.c ****     /* Program double word (64-bit : 4*16-bit) at a specified address. */
 207              		.loc 1 270 5 is_stmt 1 view .LVU47
 270:Drivers/STM32F0xx_HAL_Driver/Src/stm32f0xx_hal_flash.c ****     /* Program double word (64-bit : 4*16-bit) at a specified address. */
 208              		.loc 1 270 29 is_stmt 0 view .LVU48
 209 0032 0B4B     		ldr	r3, .L17
 210 0034 0522     		movs	r2, #5
 211 0036 1A70     		strb	r2, [r3]
 272:Drivers/STM32F0xx_HAL_Driver/Src/stm32f0xx_hal_flash.c ****   }
 212              		.loc 1 272 5 is_stmt 1 view .LVU49
 272:Drivers/STM32F0xx_HAL_Driver/Src/stm32f0xx_hal_flash.c ****   }
 213              		.loc 1 272 26 is_stmt 0 view .LVU50
ARM GAS  /tmp/ccTC69Sk.s 			page 17


 214 0038 013A     		subs	r2, r2, #1
 215 003a 5A60     		str	r2, [r3, #4]
 216              	.L12:
 276:Drivers/STM32F0xx_HAL_Driver/Src/stm32f0xx_hal_flash.c **** 
 217              		.loc 1 276 3 is_stmt 1 view .LVU51
 218 003c A1B2     		uxth	r1, r4
 219 003e FFF7FEFF 		bl	FLASH_Program_HalfWord
 220              	.LVL10:
 278:Drivers/STM32F0xx_HAL_Driver/Src/stm32f0xx_hal_flash.c **** }
 221              		.loc 1 278 3 view .LVU52
 278:Drivers/STM32F0xx_HAL_Driver/Src/stm32f0xx_hal_flash.c **** }
 222              		.loc 1 278 10 is_stmt 0 view .LVU53
 223 0042 0020     		movs	r0, #0
 224              	.L10:
 279:Drivers/STM32F0xx_HAL_Driver/Src/stm32f0xx_hal_flash.c **** 
 225              		.loc 1 279 1 view .LVU54
 226              		@ sp needed
 227              	.LVL11:
 279:Drivers/STM32F0xx_HAL_Driver/Src/stm32f0xx_hal_flash.c **** 
 228              		.loc 1 279 1 view .LVU55
 229 0044 F8BD     		pop	{r3, r4, r5, r6, r7, pc}
 230              	.LVL12:
 231              	.L15:
 258:Drivers/STM32F0xx_HAL_Driver/Src/stm32f0xx_hal_flash.c ****     /* Program halfword (16-bit) at a specified address. */
 232              		.loc 1 258 5 is_stmt 1 view .LVU56
 258:Drivers/STM32F0xx_HAL_Driver/Src/stm32f0xx_hal_flash.c ****     /* Program halfword (16-bit) at a specified address. */
 233              		.loc 1 258 29 is_stmt 0 view .LVU57
 234 0046 0322     		movs	r2, #3
 235 0048 1A70     		strb	r2, [r3]
 260:Drivers/STM32F0xx_HAL_Driver/Src/stm32f0xx_hal_flash.c ****   }
 236              		.loc 1 260 5 is_stmt 1 view .LVU58
 260:Drivers/STM32F0xx_HAL_Driver/Src/stm32f0xx_hal_flash.c ****   }
 237              		.loc 1 260 26 is_stmt 0 view .LVU59
 238 004a 023A     		subs	r2, r2, #2
 239 004c 5A60     		str	r2, [r3, #4]
 240 004e F5E7     		b	.L12
 241              	.L16:
 264:Drivers/STM32F0xx_HAL_Driver/Src/stm32f0xx_hal_flash.c ****     /* Program word (32-bit : 2*16-bit) at a specified address. */
 242              		.loc 1 264 5 is_stmt 1 view .LVU60
 264:Drivers/STM32F0xx_HAL_Driver/Src/stm32f0xx_hal_flash.c ****     /* Program word (32-bit : 2*16-bit) at a specified address. */
 243              		.loc 1 264 29 is_stmt 0 view .LVU61
 244 0050 034B     		ldr	r3, .L17
 245 0052 0422     		movs	r2, #4
 246 0054 1A70     		strb	r2, [r3]
 266:Drivers/STM32F0xx_HAL_Driver/Src/stm32f0xx_hal_flash.c ****   }
 247              		.loc 1 266 5 is_stmt 1 view .LVU62
 266:Drivers/STM32F0xx_HAL_Driver/Src/stm32f0xx_hal_flash.c ****   }
 248              		.loc 1 266 26 is_stmt 0 view .LVU63
 249 0056 023A     		subs	r2, r2, #2
 250 0058 5A60     		str	r2, [r3, #4]
 251 005a EFE7     		b	.L12
 252              	.LVL13:
 253              	.L14:
 244:Drivers/STM32F0xx_HAL_Driver/Src/stm32f0xx_hal_flash.c **** 
 254              		.loc 1 244 3 view .LVU64
 255 005c 0220     		movs	r0, #2
 256              	.LVL14:
ARM GAS  /tmp/ccTC69Sk.s 			page 18


 244:Drivers/STM32F0xx_HAL_Driver/Src/stm32f0xx_hal_flash.c **** 
 257              		.loc 1 244 3 view .LVU65
 258 005e F1E7     		b	.L10
 259              	.L18:
 260              		.align	2
 261              	.L17:
 262 0060 00000000 		.word	.LANCHOR0
 263 0064 00200240 		.word	1073881088
 264              		.cfi_endproc
 265              	.LFE41:
 267              		.section	.text.HAL_FLASH_EndOfOperationCallback,"ax",%progbits
 268              		.align	1
 269              		.weak	HAL_FLASH_EndOfOperationCallback
 270              		.syntax unified
 271              		.code	16
 272              		.thumb_func
 273              		.fpu softvfp
 275              	HAL_FLASH_EndOfOperationCallback:
 276              	.LVL15:
 277              	.LFB43:
 429:Drivers/STM32F0xx_HAL_Driver/Src/stm32f0xx_hal_flash.c ****   /* Prevent unused argument(s) compilation warning */
 278              		.loc 1 429 1 is_stmt 1 view -0
 279              		.cfi_startproc
 280              		@ args = 0, pretend = 0, frame = 0
 281              		@ frame_needed = 0, uses_anonymous_args = 0
 282              		@ link register save eliminated.
 431:Drivers/STM32F0xx_HAL_Driver/Src/stm32f0xx_hal_flash.c **** 
 283              		.loc 1 431 3 view .LVU67
 436:Drivers/STM32F0xx_HAL_Driver/Src/stm32f0xx_hal_flash.c **** 
 284              		.loc 1 436 1 is_stmt 0 view .LVU68
 285              		@ sp needed
 286 0000 7047     		bx	lr
 287              		.cfi_endproc
 288              	.LFE43:
 290              		.section	.text.HAL_FLASH_OperationErrorCallback,"ax",%progbits
 291              		.align	1
 292              		.weak	HAL_FLASH_OperationErrorCallback
 293              		.syntax unified
 294              		.code	16
 295              		.thumb_func
 296              		.fpu softvfp
 298              	HAL_FLASH_OperationErrorCallback:
 299              	.LVL16:
 300              	.LFB44:
 447:Drivers/STM32F0xx_HAL_Driver/Src/stm32f0xx_hal_flash.c ****   /* Prevent unused argument(s) compilation warning */
 301              		.loc 1 447 1 is_stmt 1 view -0
 302              		.cfi_startproc
 303              		@ args = 0, pretend = 0, frame = 0
 304              		@ frame_needed = 0, uses_anonymous_args = 0
 305              		@ link register save eliminated.
 449:Drivers/STM32F0xx_HAL_Driver/Src/stm32f0xx_hal_flash.c **** 
 306              		.loc 1 449 3 view .LVU70
 454:Drivers/STM32F0xx_HAL_Driver/Src/stm32f0xx_hal_flash.c **** 
 307              		.loc 1 454 1 is_stmt 0 view .LVU71
 308              		@ sp needed
 309 0000 7047     		bx	lr
 310              		.cfi_endproc
ARM GAS  /tmp/ccTC69Sk.s 			page 19


 311              	.LFE44:
 313              		.section	.text.HAL_FLASH_IRQHandler,"ax",%progbits
 314              		.align	1
 315              		.global	HAL_FLASH_IRQHandler
 316              		.syntax unified
 317              		.code	16
 318              		.thumb_func
 319              		.fpu softvfp
 321              	HAL_FLASH_IRQHandler:
 322              	.LFB42:
 286:Drivers/STM32F0xx_HAL_Driver/Src/stm32f0xx_hal_flash.c ****   uint32_t addresstmp = 0U;
 323              		.loc 1 286 1 is_stmt 1 view -0
 324              		.cfi_startproc
 325              		@ args = 0, pretend = 0, frame = 0
 326              		@ frame_needed = 0, uses_anonymous_args = 0
 327 0000 F8B5     		push	{r3, r4, r5, r6, r7, lr}
 328              	.LCFI2:
 329              		.cfi_def_cfa_offset 24
 330              		.cfi_offset 3, -24
 331              		.cfi_offset 4, -20
 332              		.cfi_offset 5, -16
 333              		.cfi_offset 6, -12
 334              		.cfi_offset 7, -8
 335              		.cfi_offset 14, -4
 287:Drivers/STM32F0xx_HAL_Driver/Src/stm32f0xx_hal_flash.c ****   
 336              		.loc 1 287 3 view .LVU73
 337              	.LVL17:
 290:Drivers/STM32F0xx_HAL_Driver/Src/stm32f0xx_hal_flash.c ****   {
 338              		.loc 1 290 3 view .LVU74
 290:Drivers/STM32F0xx_HAL_Driver/Src/stm32f0xx_hal_flash.c ****   {
 339              		.loc 1 290 6 is_stmt 0 view .LVU75
 340 0002 514B     		ldr	r3, .L38
 341 0004 DB68     		ldr	r3, [r3, #12]
 290:Drivers/STM32F0xx_HAL_Driver/Src/stm32f0xx_hal_flash.c ****   {
 342              		.loc 1 290 5 view .LVU76
 343 0006 DB06     		lsls	r3, r3, #27
 344 0008 03D4     		bmi	.L22
 290:Drivers/STM32F0xx_HAL_Driver/Src/stm32f0xx_hal_flash.c ****   {
 345              		.loc 1 290 48 discriminator 1 view .LVU77
 346 000a 4F4B     		ldr	r3, .L38
 347 000c DB68     		ldr	r3, [r3, #12]
 290:Drivers/STM32F0xx_HAL_Driver/Src/stm32f0xx_hal_flash.c ****   {
 348              		.loc 1 290 46 discriminator 1 view .LVU78
 349 000e 5B07     		lsls	r3, r3, #29
 350 0010 0BD5     		bpl	.L23
 351              	.L22:
 293:Drivers/STM32F0xx_HAL_Driver/Src/stm32f0xx_hal_flash.c ****     /* Reset address */
 352              		.loc 1 293 5 is_stmt 1 view .LVU79
 293:Drivers/STM32F0xx_HAL_Driver/Src/stm32f0xx_hal_flash.c ****     /* Reset address */
 353              		.loc 1 293 16 is_stmt 0 view .LVU80
 354 0012 4E4C     		ldr	r4, .L38+4
 355 0014 A568     		ldr	r5, [r4, #8]
 356              	.LVL18:
 295:Drivers/STM32F0xx_HAL_Driver/Src/stm32f0xx_hal_flash.c ****   
 357              		.loc 1 295 5 is_stmt 1 view .LVU81
 295:Drivers/STM32F0xx_HAL_Driver/Src/stm32f0xx_hal_flash.c ****   
 358              		.loc 1 295 20 is_stmt 0 view .LVU82
ARM GAS  /tmp/ccTC69Sk.s 			page 20


 359 0016 0123     		movs	r3, #1
 360 0018 5B42     		rsbs	r3, r3, #0
 361 001a A360     		str	r3, [r4, #8]
 298:Drivers/STM32F0xx_HAL_Driver/Src/stm32f0xx_hal_flash.c ****     
 362              		.loc 1 298 5 is_stmt 1 view .LVU83
 363 001c FFF7FEFF 		bl	FLASH_SetErrorCode
 364              	.LVL19:
 301:Drivers/STM32F0xx_HAL_Driver/Src/stm32f0xx_hal_flash.c **** 
 365              		.loc 1 301 5 view .LVU84
 366 0020 2800     		movs	r0, r5
 367 0022 FFF7FEFF 		bl	HAL_FLASH_OperationErrorCallback
 368              	.LVL20:
 304:Drivers/STM32F0xx_HAL_Driver/Src/stm32f0xx_hal_flash.c ****   }
 369              		.loc 1 304 5 view .LVU85
 304:Drivers/STM32F0xx_HAL_Driver/Src/stm32f0xx_hal_flash.c ****   }
 370              		.loc 1 304 29 is_stmt 0 view .LVU86
 371 0026 0023     		movs	r3, #0
 372 0028 2370     		strb	r3, [r4]
 373              	.LVL21:
 374              	.L23:
 308:Drivers/STM32F0xx_HAL_Driver/Src/stm32f0xx_hal_flash.c ****   {
 375              		.loc 1 308 3 is_stmt 1 view .LVU87
 308:Drivers/STM32F0xx_HAL_Driver/Src/stm32f0xx_hal_flash.c ****   {
 376              		.loc 1 308 6 is_stmt 0 view .LVU88
 377 002a 474B     		ldr	r3, .L38
 378 002c DB68     		ldr	r3, [r3, #12]
 308:Drivers/STM32F0xx_HAL_Driver/Src/stm32f0xx_hal_flash.c ****   {
 379              		.loc 1 308 5 view .LVU89
 380 002e 9B06     		lsls	r3, r3, #26
 381 0030 28D5     		bpl	.L24
 311:Drivers/STM32F0xx_HAL_Driver/Src/stm32f0xx_hal_flash.c ****     
 382              		.loc 1 311 5 is_stmt 1 view .LVU90
 383 0032 454B     		ldr	r3, .L38
 384 0034 2022     		movs	r2, #32
 385 0036 DA60     		str	r2, [r3, #12]
 314:Drivers/STM32F0xx_HAL_Driver/Src/stm32f0xx_hal_flash.c ****     {
 386              		.loc 1 314 5 view .LVU91
 314:Drivers/STM32F0xx_HAL_Driver/Src/stm32f0xx_hal_flash.c ****     {
 387              		.loc 1 314 14 is_stmt 0 view .LVU92
 388 0038 444B     		ldr	r3, .L38+4
 389 003a 1B78     		ldrb	r3, [r3]
 314:Drivers/STM32F0xx_HAL_Driver/Src/stm32f0xx_hal_flash.c ****     {
 390              		.loc 1 314 7 view .LVU93
 391 003c 002B     		cmp	r3, #0
 392 003e 21D0     		beq	.L24
 316:Drivers/STM32F0xx_HAL_Driver/Src/stm32f0xx_hal_flash.c ****       {
 393              		.loc 1 316 7 is_stmt 1 view .LVU94
 316:Drivers/STM32F0xx_HAL_Driver/Src/stm32f0xx_hal_flash.c ****       {
 394              		.loc 1 316 16 is_stmt 0 view .LVU95
 395 0040 424B     		ldr	r3, .L38+4
 396 0042 1B78     		ldrb	r3, [r3]
 316:Drivers/STM32F0xx_HAL_Driver/Src/stm32f0xx_hal_flash.c ****       {
 397              		.loc 1 316 9 view .LVU96
 398 0044 012B     		cmp	r3, #1
 399 0046 2ED0     		beq	.L33
 347:Drivers/STM32F0xx_HAL_Driver/Src/stm32f0xx_hal_flash.c ****       {
 400              		.loc 1 347 12 is_stmt 1 view .LVU97
ARM GAS  /tmp/ccTC69Sk.s 			page 21


 347:Drivers/STM32F0xx_HAL_Driver/Src/stm32f0xx_hal_flash.c ****       {
 401              		.loc 1 347 21 is_stmt 0 view .LVU98
 402 0048 404B     		ldr	r3, .L38+4
 403 004a 1B78     		ldrb	r3, [r3]
 347:Drivers/STM32F0xx_HAL_Driver/Src/stm32f0xx_hal_flash.c ****       {
 404              		.loc 1 347 14 view .LVU99
 405 004c 022B     		cmp	r3, #2
 406 004e 4CD0     		beq	.L34
 362:Drivers/STM32F0xx_HAL_Driver/Src/stm32f0xx_hal_flash.c ****         
 407              		.loc 1 362 9 is_stmt 1 view .LVU100
 362:Drivers/STM32F0xx_HAL_Driver/Src/stm32f0xx_hal_flash.c ****         
 408              		.loc 1 362 15 is_stmt 0 view .LVU101
 409 0050 3E4B     		ldr	r3, .L38+4
 410 0052 5A68     		ldr	r2, [r3, #4]
 362:Drivers/STM32F0xx_HAL_Driver/Src/stm32f0xx_hal_flash.c ****         
 411              		.loc 1 362 29 view .LVU102
 412 0054 013A     		subs	r2, r2, #1
 413 0056 5A60     		str	r2, [r3, #4]
 365:Drivers/STM32F0xx_HAL_Driver/Src/stm32f0xx_hal_flash.c ****         {
 414              		.loc 1 365 9 is_stmt 1 view .LVU103
 365:Drivers/STM32F0xx_HAL_Driver/Src/stm32f0xx_hal_flash.c ****         {
 415              		.loc 1 365 18 is_stmt 0 view .LVU104
 416 0058 5B68     		ldr	r3, [r3, #4]
 365:Drivers/STM32F0xx_HAL_Driver/Src/stm32f0xx_hal_flash.c ****         {
 417              		.loc 1 365 11 view .LVU105
 418 005a 002B     		cmp	r3, #0
 419 005c 51D1     		bne	.L35
 384:Drivers/STM32F0xx_HAL_Driver/Src/stm32f0xx_hal_flash.c ****           {
 420              		.loc 1 384 11 is_stmt 1 view .LVU106
 384:Drivers/STM32F0xx_HAL_Driver/Src/stm32f0xx_hal_flash.c ****           {
 421              		.loc 1 384 21 is_stmt 0 view .LVU107
 422 005e 3B4B     		ldr	r3, .L38+4
 423 0060 1B78     		ldrb	r3, [r3]
 384:Drivers/STM32F0xx_HAL_Driver/Src/stm32f0xx_hal_flash.c ****           {
 424              		.loc 1 384 14 view .LVU108
 425 0062 032B     		cmp	r3, #3
 426 0064 65D0     		beq	.L36
 388:Drivers/STM32F0xx_HAL_Driver/Src/stm32f0xx_hal_flash.c ****           {
 427              		.loc 1 388 16 is_stmt 1 view .LVU109
 388:Drivers/STM32F0xx_HAL_Driver/Src/stm32f0xx_hal_flash.c ****           {
 428              		.loc 1 388 26 is_stmt 0 view .LVU110
 429 0066 394B     		ldr	r3, .L38+4
 430 0068 1B78     		ldrb	r3, [r3]
 388:Drivers/STM32F0xx_HAL_Driver/Src/stm32f0xx_hal_flash.c ****           {
 431              		.loc 1 388 19 view .LVU111
 432 006a 042B     		cmp	r3, #4
 433 006c 66D0     		beq	.L37
 394:Drivers/STM32F0xx_HAL_Driver/Src/stm32f0xx_hal_flash.c ****           }
 434              		.loc 1 394 13 is_stmt 1 view .LVU112
 394:Drivers/STM32F0xx_HAL_Driver/Src/stm32f0xx_hal_flash.c ****           }
 435              		.loc 1 394 52 is_stmt 0 view .LVU113
 436 006e 374B     		ldr	r3, .L38+4
 437 0070 9868     		ldr	r0, [r3, #8]
 394:Drivers/STM32F0xx_HAL_Driver/Src/stm32f0xx_hal_flash.c ****           }
 438              		.loc 1 394 13 view .LVU114
 439 0072 0638     		subs	r0, r0, #6
 440 0074 FFF7FEFF 		bl	HAL_FLASH_EndOfOperationCallback
ARM GAS  /tmp/ccTC69Sk.s 			page 22


 441              	.LVL22:
 442              	.L30:
 398:Drivers/STM32F0xx_HAL_Driver/Src/stm32f0xx_hal_flash.c ****           pFlash.ProcedureOnGoing = FLASH_PROC_NONE;
 443              		.loc 1 398 11 is_stmt 1 view .LVU115
 398:Drivers/STM32F0xx_HAL_Driver/Src/stm32f0xx_hal_flash.c ****           pFlash.ProcedureOnGoing = FLASH_PROC_NONE;
 444              		.loc 1 398 26 is_stmt 0 view .LVU116
 445 0078 344B     		ldr	r3, .L38+4
 446 007a 0122     		movs	r2, #1
 447 007c 5242     		rsbs	r2, r2, #0
 448 007e 9A60     		str	r2, [r3, #8]
 399:Drivers/STM32F0xx_HAL_Driver/Src/stm32f0xx_hal_flash.c ****         }
 449              		.loc 1 399 11 is_stmt 1 view .LVU117
 399:Drivers/STM32F0xx_HAL_Driver/Src/stm32f0xx_hal_flash.c ****         }
 450              		.loc 1 399 35 is_stmt 0 view .LVU118
 451 0080 0022     		movs	r2, #0
 452 0082 1A70     		strb	r2, [r3]
 453              	.L24:
 406:Drivers/STM32F0xx_HAL_Driver/Src/stm32f0xx_hal_flash.c ****   {
 454              		.loc 1 406 3 is_stmt 1 view .LVU119
 406:Drivers/STM32F0xx_HAL_Driver/Src/stm32f0xx_hal_flash.c ****   {
 455              		.loc 1 406 12 is_stmt 0 view .LVU120
 456 0084 314B     		ldr	r3, .L38+4
 457 0086 1B78     		ldrb	r3, [r3]
 406:Drivers/STM32F0xx_HAL_Driver/Src/stm32f0xx_hal_flash.c ****   {
 458              		.loc 1 406 5 view .LVU121
 459 0088 002B     		cmp	r3, #0
 460 008a 0BD1     		bne	.L21
 409:Drivers/STM32F0xx_HAL_Driver/Src/stm32f0xx_hal_flash.c **** 
 461              		.loc 1 409 5 is_stmt 1 view .LVU122
 462 008c 2E4B     		ldr	r3, .L38
 463 008e 1A69     		ldr	r2, [r3, #16]
 464 0090 0721     		movs	r1, #7
 465 0092 8A43     		bics	r2, r1
 466 0094 1A61     		str	r2, [r3, #16]
 412:Drivers/STM32F0xx_HAL_Driver/Src/stm32f0xx_hal_flash.c **** 
 467              		.loc 1 412 5 view .LVU123
 468 0096 1A69     		ldr	r2, [r3, #16]
 469 0098 2D49     		ldr	r1, .L38+8
 470 009a 0A40     		ands	r2, r1
 471 009c 1A61     		str	r2, [r3, #16]
 415:Drivers/STM32F0xx_HAL_Driver/Src/stm32f0xx_hal_flash.c ****   }
 472              		.loc 1 415 5 view .LVU124
 415:Drivers/STM32F0xx_HAL_Driver/Src/stm32f0xx_hal_flash.c ****   }
 473              		.loc 1 415 5 view .LVU125
 474 009e 2B4B     		ldr	r3, .L38+4
 475 00a0 0022     		movs	r2, #0
 476 00a2 1A76     		strb	r2, [r3, #24]
 415:Drivers/STM32F0xx_HAL_Driver/Src/stm32f0xx_hal_flash.c ****   }
 477              		.loc 1 415 5 view .LVU126
 478              	.L21:
 417:Drivers/STM32F0xx_HAL_Driver/Src/stm32f0xx_hal_flash.c **** 
 479              		.loc 1 417 1 is_stmt 0 view .LVU127
 480              		@ sp needed
 481 00a4 F8BD     		pop	{r3, r4, r5, r6, r7, pc}
 482              	.L33:
 319:Drivers/STM32F0xx_HAL_Driver/Src/stm32f0xx_hal_flash.c **** 
 483              		.loc 1 319 9 is_stmt 1 view .LVU128
ARM GAS  /tmp/ccTC69Sk.s 			page 23


 319:Drivers/STM32F0xx_HAL_Driver/Src/stm32f0xx_hal_flash.c **** 
 484              		.loc 1 319 15 is_stmt 0 view .LVU129
 485 00a6 294B     		ldr	r3, .L38+4
 486 00a8 5A68     		ldr	r2, [r3, #4]
 319:Drivers/STM32F0xx_HAL_Driver/Src/stm32f0xx_hal_flash.c **** 
 487              		.loc 1 319 29 view .LVU130
 488 00aa 013A     		subs	r2, r2, #1
 489 00ac 5A60     		str	r2, [r3, #4]
 322:Drivers/STM32F0xx_HAL_Driver/Src/stm32f0xx_hal_flash.c ****         {
 490              		.loc 1 322 9 is_stmt 1 view .LVU131
 322:Drivers/STM32F0xx_HAL_Driver/Src/stm32f0xx_hal_flash.c ****         {
 491              		.loc 1 322 18 is_stmt 0 view .LVU132
 492 00ae 5B68     		ldr	r3, [r3, #4]
 322:Drivers/STM32F0xx_HAL_Driver/Src/stm32f0xx_hal_flash.c ****         {
 493              		.loc 1 322 11 view .LVU133
 494 00b0 002B     		cmp	r3, #0
 495 00b2 11D0     		beq	.L26
 324:Drivers/STM32F0xx_HAL_Driver/Src/stm32f0xx_hal_flash.c ****           /*Indicate user which sector has been erased */
 496              		.loc 1 324 11 is_stmt 1 view .LVU134
 324:Drivers/STM32F0xx_HAL_Driver/Src/stm32f0xx_hal_flash.c ****           /*Indicate user which sector has been erased */
 497              		.loc 1 324 22 is_stmt 0 view .LVU135
 498 00b4 254C     		ldr	r4, .L38+4
 499 00b6 A068     		ldr	r0, [r4, #8]
 500              	.LVL23:
 326:Drivers/STM32F0xx_HAL_Driver/Src/stm32f0xx_hal_flash.c **** 
 501              		.loc 1 326 11 is_stmt 1 view .LVU136
 502 00b8 FFF7FEFF 		bl	HAL_FLASH_EndOfOperationCallback
 503              	.LVL24:
 329:Drivers/STM32F0xx_HAL_Driver/Src/stm32f0xx_hal_flash.c ****           pFlash.Address = addresstmp;
 504              		.loc 1 329 11 view .LVU137
 329:Drivers/STM32F0xx_HAL_Driver/Src/stm32f0xx_hal_flash.c ****           pFlash.Address = addresstmp;
 505              		.loc 1 329 30 is_stmt 0 view .LVU138
 506 00bc A068     		ldr	r0, [r4, #8]
 329:Drivers/STM32F0xx_HAL_Driver/Src/stm32f0xx_hal_flash.c ****           pFlash.Address = addresstmp;
 507              		.loc 1 329 22 view .LVU139
 508 00be 8023     		movs	r3, #128
 509 00c0 DB00     		lsls	r3, r3, #3
 510 00c2 9C46     		mov	ip, r3
 511 00c4 6044     		add	r0, r0, ip
 512              	.LVL25:
 330:Drivers/STM32F0xx_HAL_Driver/Src/stm32f0xx_hal_flash.c **** 
 513              		.loc 1 330 11 is_stmt 1 view .LVU140
 330:Drivers/STM32F0xx_HAL_Driver/Src/stm32f0xx_hal_flash.c **** 
 514              		.loc 1 330 26 is_stmt 0 view .LVU141
 515 00c6 A060     		str	r0, [r4, #8]
 333:Drivers/STM32F0xx_HAL_Driver/Src/stm32f0xx_hal_flash.c **** 
 516              		.loc 1 333 11 is_stmt 1 view .LVU142
 517 00c8 1F4A     		ldr	r2, .L38
 518 00ca 1369     		ldr	r3, [r2, #16]
 519 00cc 0221     		movs	r1, #2
 520 00ce 8B43     		bics	r3, r1
 521 00d0 1361     		str	r3, [r2, #16]
 335:Drivers/STM32F0xx_HAL_Driver/Src/stm32f0xx_hal_flash.c ****         }
 522              		.loc 1 335 11 view .LVU143
 523 00d2 FFF7FEFF 		bl	FLASH_PageErase
 524              	.LVL26:
 335:Drivers/STM32F0xx_HAL_Driver/Src/stm32f0xx_hal_flash.c ****         }
ARM GAS  /tmp/ccTC69Sk.s 			page 24


 525              		.loc 1 335 11 is_stmt 0 view .LVU144
 526 00d6 D5E7     		b	.L24
 527              	.L26:
 341:Drivers/STM32F0xx_HAL_Driver/Src/stm32f0xx_hal_flash.c ****           pFlash.ProcedureOnGoing = FLASH_PROC_NONE;
 528              		.loc 1 341 11 is_stmt 1 view .LVU145
 529              	.LVL27:
 341:Drivers/STM32F0xx_HAL_Driver/Src/stm32f0xx_hal_flash.c ****           pFlash.ProcedureOnGoing = FLASH_PROC_NONE;
 530              		.loc 1 341 26 is_stmt 0 view .LVU146
 531 00d8 1C4B     		ldr	r3, .L38+4
 532 00da 0120     		movs	r0, #1
 533 00dc 4042     		rsbs	r0, r0, #0
 534 00de 9860     		str	r0, [r3, #8]
 342:Drivers/STM32F0xx_HAL_Driver/Src/stm32f0xx_hal_flash.c ****           /* FLASH EOP interrupt user callback */
 535              		.loc 1 342 11 is_stmt 1 view .LVU147
 342:Drivers/STM32F0xx_HAL_Driver/Src/stm32f0xx_hal_flash.c ****           /* FLASH EOP interrupt user callback */
 536              		.loc 1 342 35 is_stmt 0 view .LVU148
 537 00e0 0022     		movs	r2, #0
 538 00e2 1A70     		strb	r2, [r3]
 344:Drivers/STM32F0xx_HAL_Driver/Src/stm32f0xx_hal_flash.c ****         }
 539              		.loc 1 344 11 is_stmt 1 view .LVU149
 540 00e4 FFF7FEFF 		bl	HAL_FLASH_EndOfOperationCallback
 541              	.LVL28:
 542 00e8 CCE7     		b	.L24
 543              	.LVL29:
 544              	.L34:
 350:Drivers/STM32F0xx_HAL_Driver/Src/stm32f0xx_hal_flash.c **** 
 545              		.loc 1 350 9 view .LVU150
 546 00ea 174A     		ldr	r2, .L38
 547 00ec 1369     		ldr	r3, [r2, #16]
 548 00ee 0421     		movs	r1, #4
 549 00f0 8B43     		bics	r3, r1
 550 00f2 1361     		str	r3, [r2, #16]
 354:Drivers/STM32F0xx_HAL_Driver/Src/stm32f0xx_hal_flash.c **** 
 551              		.loc 1 354 11 view .LVU151
 552 00f4 0020     		movs	r0, #0
 553 00f6 FFF7FEFF 		bl	HAL_FLASH_EndOfOperationCallback
 554              	.LVL30:
 357:Drivers/STM32F0xx_HAL_Driver/Src/stm32f0xx_hal_flash.c ****         }
 555              		.loc 1 357 11 view .LVU152
 357:Drivers/STM32F0xx_HAL_Driver/Src/stm32f0xx_hal_flash.c ****         }
 556              		.loc 1 357 35 is_stmt 0 view .LVU153
 557 00fa 144B     		ldr	r3, .L38+4
 558 00fc 0022     		movs	r2, #0
 559 00fe 1A70     		strb	r2, [r3]
 560 0100 C0E7     		b	.L24
 561              	.L35:
 368:Drivers/STM32F0xx_HAL_Driver/Src/stm32f0xx_hal_flash.c ****           addresstmp = pFlash.Address;
 562              		.loc 1 368 11 is_stmt 1 view .LVU154
 368:Drivers/STM32F0xx_HAL_Driver/Src/stm32f0xx_hal_flash.c ****           addresstmp = pFlash.Address;
 563              		.loc 1 368 26 is_stmt 0 view .LVU155
 564 0102 124B     		ldr	r3, .L38+4
 565 0104 9A68     		ldr	r2, [r3, #8]
 566 0106 0232     		adds	r2, r2, #2
 567 0108 9A60     		str	r2, [r3, #8]
 369:Drivers/STM32F0xx_HAL_Driver/Src/stm32f0xx_hal_flash.c ****           
 568              		.loc 1 369 11 is_stmt 1 view .LVU156
 369:Drivers/STM32F0xx_HAL_Driver/Src/stm32f0xx_hal_flash.c ****           
ARM GAS  /tmp/ccTC69Sk.s 			page 25


 569              		.loc 1 369 22 is_stmt 0 view .LVU157
 570 010a 9868     		ldr	r0, [r3, #8]
 571              	.LVL31:
 372:Drivers/STM32F0xx_HAL_Driver/Src/stm32f0xx_hal_flash.c ****           
 572              		.loc 1 372 11 is_stmt 1 view .LVU158
 372:Drivers/STM32F0xx_HAL_Driver/Src/stm32f0xx_hal_flash.c ****           
 573              		.loc 1 372 32 is_stmt 0 view .LVU159
 574 010c 1E69     		ldr	r6, [r3, #16]
 575 010e 5F69     		ldr	r7, [r3, #20]
 372:Drivers/STM32F0xx_HAL_Driver/Src/stm32f0xx_hal_flash.c ****           
 576              		.loc 1 372 38 view .LVU160
 577 0110 3A04     		lsls	r2, r7, #16
 578 0112 340C     		lsrs	r4, r6, #16
 579 0114 1443     		orrs	r4, r2
 580 0116 3D0C     		lsrs	r5, r7, #16
 372:Drivers/STM32F0xx_HAL_Driver/Src/stm32f0xx_hal_flash.c ****           
 581              		.loc 1 372 23 view .LVU161
 582 0118 1C61     		str	r4, [r3, #16]
 583 011a 5D61     		str	r5, [r3, #20]
 375:Drivers/STM32F0xx_HAL_Driver/Src/stm32f0xx_hal_flash.c **** 
 584              		.loc 1 375 11 is_stmt 1 view .LVU162
 585 011c 0A49     		ldr	r1, .L38
 586 011e 0A69     		ldr	r2, [r1, #16]
 587 0120 0124     		movs	r4, #1
 588 0122 A243     		bics	r2, r4
 589 0124 0A61     		str	r2, [r1, #16]
 378:Drivers/STM32F0xx_HAL_Driver/Src/stm32f0xx_hal_flash.c ****         }
 590              		.loc 1 378 11 view .LVU163
 378:Drivers/STM32F0xx_HAL_Driver/Src/stm32f0xx_hal_flash.c ****         }
 591              		.loc 1 378 62 is_stmt 0 view .LVU164
 592 0126 1A69     		ldr	r2, [r3, #16]
 593 0128 5B69     		ldr	r3, [r3, #20]
 378:Drivers/STM32F0xx_HAL_Driver/Src/stm32f0xx_hal_flash.c ****         }
 594              		.loc 1 378 11 view .LVU165
 595 012a 91B2     		uxth	r1, r2
 596 012c FFF7FEFF 		bl	FLASH_Program_HalfWord
 597              	.LVL32:
 378:Drivers/STM32F0xx_HAL_Driver/Src/stm32f0xx_hal_flash.c ****         }
 598              		.loc 1 378 11 view .LVU166
 599 0130 A8E7     		b	.L24
 600              	.L36:
 386:Drivers/STM32F0xx_HAL_Driver/Src/stm32f0xx_hal_flash.c ****           }
 601              		.loc 1 386 13 is_stmt 1 view .LVU167
 602 0132 064B     		ldr	r3, .L38+4
 603 0134 9868     		ldr	r0, [r3, #8]
 604 0136 FFF7FEFF 		bl	HAL_FLASH_EndOfOperationCallback
 605              	.LVL33:
 606 013a 9DE7     		b	.L30
 607              	.L37:
 390:Drivers/STM32F0xx_HAL_Driver/Src/stm32f0xx_hal_flash.c ****           }
 608              		.loc 1 390 13 view .LVU168
 390:Drivers/STM32F0xx_HAL_Driver/Src/stm32f0xx_hal_flash.c ****           }
 609              		.loc 1 390 52 is_stmt 0 view .LVU169
 610 013c 034B     		ldr	r3, .L38+4
 611 013e 9868     		ldr	r0, [r3, #8]
 390:Drivers/STM32F0xx_HAL_Driver/Src/stm32f0xx_hal_flash.c ****           }
 612              		.loc 1 390 13 view .LVU170
ARM GAS  /tmp/ccTC69Sk.s 			page 26


 613 0140 0238     		subs	r0, r0, #2
 614 0142 FFF7FEFF 		bl	HAL_FLASH_EndOfOperationCallback
 615              	.LVL34:
 616 0146 97E7     		b	.L30
 617              	.L39:
 618              		.align	2
 619              	.L38:
 620 0148 00200240 		.word	1073881088
 621 014c 00000000 		.word	.LANCHOR0
 622 0150 FFEBFFFF 		.word	-5121
 623              		.cfi_endproc
 624              	.LFE42:
 626              		.section	.text.HAL_FLASH_Unlock,"ax",%progbits
 627              		.align	1
 628              		.global	HAL_FLASH_Unlock
 629              		.syntax unified
 630              		.code	16
 631              		.thumb_func
 632              		.fpu softvfp
 634              	HAL_FLASH_Unlock:
 635              	.LFB45:
 480:Drivers/STM32F0xx_HAL_Driver/Src/stm32f0xx_hal_flash.c ****   HAL_StatusTypeDef status = HAL_OK;
 636              		.loc 1 480 1 is_stmt 1 view -0
 637              		.cfi_startproc
 638              		@ args = 0, pretend = 0, frame = 0
 639              		@ frame_needed = 0, uses_anonymous_args = 0
 640              		@ link register save eliminated.
 481:Drivers/STM32F0xx_HAL_Driver/Src/stm32f0xx_hal_flash.c **** 
 641              		.loc 1 481 3 view .LVU172
 642              	.LVL35:
 483:Drivers/STM32F0xx_HAL_Driver/Src/stm32f0xx_hal_flash.c ****   {
 643              		.loc 1 483 3 view .LVU173
 483:Drivers/STM32F0xx_HAL_Driver/Src/stm32f0xx_hal_flash.c ****   {
 644              		.loc 1 483 6 is_stmt 0 view .LVU174
 645 0000 084B     		ldr	r3, .L44
 646 0002 1B69     		ldr	r3, [r3, #16]
 483:Drivers/STM32F0xx_HAL_Driver/Src/stm32f0xx_hal_flash.c ****   {
 647              		.loc 1 483 5 view .LVU175
 648 0004 1B06     		lsls	r3, r3, #24
 649 0006 09D5     		bpl	.L42
 486:Drivers/STM32F0xx_HAL_Driver/Src/stm32f0xx_hal_flash.c ****     WRITE_REG(FLASH->KEYR, FLASH_KEY2);
 650              		.loc 1 486 5 is_stmt 1 view .LVU176
 651 0008 064B     		ldr	r3, .L44
 652 000a 074A     		ldr	r2, .L44+4
 653 000c 5A60     		str	r2, [r3, #4]
 487:Drivers/STM32F0xx_HAL_Driver/Src/stm32f0xx_hal_flash.c **** 
 654              		.loc 1 487 5 view .LVU177
 655 000e 074A     		ldr	r2, .L44+8
 656 0010 5A60     		str	r2, [r3, #4]
 490:Drivers/STM32F0xx_HAL_Driver/Src/stm32f0xx_hal_flash.c ****     {
 657              		.loc 1 490 5 view .LVU178
 490:Drivers/STM32F0xx_HAL_Driver/Src/stm32f0xx_hal_flash.c ****     {
 658              		.loc 1 490 8 is_stmt 0 view .LVU179
 659 0012 1B69     		ldr	r3, [r3, #16]
 490:Drivers/STM32F0xx_HAL_Driver/Src/stm32f0xx_hal_flash.c ****     {
 660              		.loc 1 490 7 view .LVU180
 661 0014 1B06     		lsls	r3, r3, #24
ARM GAS  /tmp/ccTC69Sk.s 			page 27


 662 0016 03D4     		bmi	.L43
 481:Drivers/STM32F0xx_HAL_Driver/Src/stm32f0xx_hal_flash.c **** 
 663              		.loc 1 481 21 view .LVU181
 664 0018 0020     		movs	r0, #0
 665 001a 00E0     		b	.L41
 666              	.L42:
 667 001c 0020     		movs	r0, #0
 668              	.L41:
 669              	.LVL36:
 496:Drivers/STM32F0xx_HAL_Driver/Src/stm32f0xx_hal_flash.c **** }
 670              		.loc 1 496 3 is_stmt 1 view .LVU182
 497:Drivers/STM32F0xx_HAL_Driver/Src/stm32f0xx_hal_flash.c **** 
 671              		.loc 1 497 1 is_stmt 0 view .LVU183
 672              		@ sp needed
 673 001e 7047     		bx	lr
 674              	.LVL37:
 675              	.L43:
 492:Drivers/STM32F0xx_HAL_Driver/Src/stm32f0xx_hal_flash.c ****     }
 676              		.loc 1 492 14 view .LVU184
 677 0020 0120     		movs	r0, #1
 678 0022 FCE7     		b	.L41
 679              	.L45:
 680              		.align	2
 681              	.L44:
 682 0024 00200240 		.word	1073881088
 683 0028 23016745 		.word	1164378403
 684 002c AB89EFCD 		.word	-839939669
 685              		.cfi_endproc
 686              	.LFE45:
 688              		.section	.text.HAL_FLASH_Lock,"ax",%progbits
 689              		.align	1
 690              		.global	HAL_FLASH_Lock
 691              		.syntax unified
 692              		.code	16
 693              		.thumb_func
 694              		.fpu softvfp
 696              	HAL_FLASH_Lock:
 697              	.LFB46:
 504:Drivers/STM32F0xx_HAL_Driver/Src/stm32f0xx_hal_flash.c ****   /* Set the LOCK Bit to lock the FLASH Registers access */
 698              		.loc 1 504 1 is_stmt 1 view -0
 699              		.cfi_startproc
 700              		@ args = 0, pretend = 0, frame = 0
 701              		@ frame_needed = 0, uses_anonymous_args = 0
 702              		@ link register save eliminated.
 506:Drivers/STM32F0xx_HAL_Driver/Src/stm32f0xx_hal_flash.c ****   
 703              		.loc 1 506 3 view .LVU186
 704 0000 034A     		ldr	r2, .L47
 705 0002 1369     		ldr	r3, [r2, #16]
 706 0004 8021     		movs	r1, #128
 707 0006 0B43     		orrs	r3, r1
 708 0008 1361     		str	r3, [r2, #16]
 508:Drivers/STM32F0xx_HAL_Driver/Src/stm32f0xx_hal_flash.c **** }
 709              		.loc 1 508 3 view .LVU187
 509:Drivers/STM32F0xx_HAL_Driver/Src/stm32f0xx_hal_flash.c **** 
 710              		.loc 1 509 1 is_stmt 0 view .LVU188
 711 000a 0020     		movs	r0, #0
 712              		@ sp needed
ARM GAS  /tmp/ccTC69Sk.s 			page 28


 713 000c 7047     		bx	lr
 714              	.L48:
 715 000e C046     		.align	2
 716              	.L47:
 717 0010 00200240 		.word	1073881088
 718              		.cfi_endproc
 719              	.LFE46:
 721              		.section	.text.HAL_FLASH_OB_Unlock,"ax",%progbits
 722              		.align	1
 723              		.global	HAL_FLASH_OB_Unlock
 724              		.syntax unified
 725              		.code	16
 726              		.thumb_func
 727              		.fpu softvfp
 729              	HAL_FLASH_OB_Unlock:
 730              	.LFB47:
 516:Drivers/STM32F0xx_HAL_Driver/Src/stm32f0xx_hal_flash.c ****   if (HAL_IS_BIT_CLR(FLASH->CR, FLASH_CR_OPTWRE))
 731              		.loc 1 516 1 is_stmt 1 view -0
 732              		.cfi_startproc
 733              		@ args = 0, pretend = 0, frame = 0
 734              		@ frame_needed = 0, uses_anonymous_args = 0
 735              		@ link register save eliminated.
 517:Drivers/STM32F0xx_HAL_Driver/Src/stm32f0xx_hal_flash.c ****   {
 736              		.loc 1 517 3 view .LVU190
 517:Drivers/STM32F0xx_HAL_Driver/Src/stm32f0xx_hal_flash.c ****   {
 737              		.loc 1 517 7 is_stmt 0 view .LVU191
 738 0000 064B     		ldr	r3, .L52
 739 0002 1B69     		ldr	r3, [r3, #16]
 517:Drivers/STM32F0xx_HAL_Driver/Src/stm32f0xx_hal_flash.c ****   {
 740              		.loc 1 517 6 view .LVU192
 741 0004 9B05     		lsls	r3, r3, #22
 742 0006 06D4     		bmi	.L51
 520:Drivers/STM32F0xx_HAL_Driver/Src/stm32f0xx_hal_flash.c ****     WRITE_REG(FLASH->OPTKEYR, FLASH_OPTKEY2);
 743              		.loc 1 520 5 is_stmt 1 view .LVU193
 744 0008 044B     		ldr	r3, .L52
 745 000a 054A     		ldr	r2, .L52+4
 746 000c 9A60     		str	r2, [r3, #8]
 521:Drivers/STM32F0xx_HAL_Driver/Src/stm32f0xx_hal_flash.c ****   }
 747              		.loc 1 521 5 view .LVU194
 748 000e 054A     		ldr	r2, .L52+8
 749 0010 9A60     		str	r2, [r3, #8]
 528:Drivers/STM32F0xx_HAL_Driver/Src/stm32f0xx_hal_flash.c **** }
 750              		.loc 1 528 3 view .LVU195
 528:Drivers/STM32F0xx_HAL_Driver/Src/stm32f0xx_hal_flash.c **** }
 751              		.loc 1 528 10 is_stmt 0 view .LVU196
 752 0012 0020     		movs	r0, #0
 753              	.L50:
 529:Drivers/STM32F0xx_HAL_Driver/Src/stm32f0xx_hal_flash.c **** 
 754              		.loc 1 529 1 view .LVU197
 755              		@ sp needed
 756 0014 7047     		bx	lr
 757              	.L51:
 525:Drivers/STM32F0xx_HAL_Driver/Src/stm32f0xx_hal_flash.c ****   }  
 758              		.loc 1 525 12 view .LVU198
 759 0016 0120     		movs	r0, #1
 760 0018 FCE7     		b	.L50
 761              	.L53:
ARM GAS  /tmp/ccTC69Sk.s 			page 29


 762 001a C046     		.align	2
 763              	.L52:
 764 001c 00200240 		.word	1073881088
 765 0020 23016745 		.word	1164378403
 766 0024 AB89EFCD 		.word	-839939669
 767              		.cfi_endproc
 768              	.LFE47:
 770              		.section	.text.HAL_FLASH_OB_Lock,"ax",%progbits
 771              		.align	1
 772              		.global	HAL_FLASH_OB_Lock
 773              		.syntax unified
 774              		.code	16
 775              		.thumb_func
 776              		.fpu softvfp
 778              	HAL_FLASH_OB_Lock:
 779              	.LFB48:
 536:Drivers/STM32F0xx_HAL_Driver/Src/stm32f0xx_hal_flash.c ****   /* Clear the OPTWRE Bit to lock the FLASH Option Byte Registers access */
 780              		.loc 1 536 1 is_stmt 1 view -0
 781              		.cfi_startproc
 782              		@ args = 0, pretend = 0, frame = 0
 783              		@ frame_needed = 0, uses_anonymous_args = 0
 784              		@ link register save eliminated.
 538:Drivers/STM32F0xx_HAL_Driver/Src/stm32f0xx_hal_flash.c ****   
 785              		.loc 1 538 3 view .LVU200
 786 0000 034A     		ldr	r2, .L55
 787 0002 1369     		ldr	r3, [r2, #16]
 788 0004 0349     		ldr	r1, .L55+4
 789 0006 0B40     		ands	r3, r1
 790 0008 1361     		str	r3, [r2, #16]
 540:Drivers/STM32F0xx_HAL_Driver/Src/stm32f0xx_hal_flash.c **** }
 791              		.loc 1 540 3 view .LVU201
 541:Drivers/STM32F0xx_HAL_Driver/Src/stm32f0xx_hal_flash.c ****   
 792              		.loc 1 541 1 is_stmt 0 view .LVU202
 793 000a 0020     		movs	r0, #0
 794              		@ sp needed
 795 000c 7047     		bx	lr
 796              	.L56:
 797 000e C046     		.align	2
 798              	.L55:
 799 0010 00200240 		.word	1073881088
 800 0014 FFFDFFFF 		.word	-513
 801              		.cfi_endproc
 802              	.LFE48:
 804              		.section	.text.HAL_FLASH_GetError,"ax",%progbits
 805              		.align	1
 806              		.global	HAL_FLASH_GetError
 807              		.syntax unified
 808              		.code	16
 809              		.thumb_func
 810              		.fpu softvfp
 812              	HAL_FLASH_GetError:
 813              	.LFB50:
 581:Drivers/STM32F0xx_HAL_Driver/Src/stm32f0xx_hal_flash.c ****    return pFlash.ErrorCode;
 814              		.loc 1 581 1 is_stmt 1 view -0
 815              		.cfi_startproc
 816              		@ args = 0, pretend = 0, frame = 0
 817              		@ frame_needed = 0, uses_anonymous_args = 0
ARM GAS  /tmp/ccTC69Sk.s 			page 30


 818              		@ link register save eliminated.
 582:Drivers/STM32F0xx_HAL_Driver/Src/stm32f0xx_hal_flash.c **** }
 819              		.loc 1 582 4 view .LVU204
 582:Drivers/STM32F0xx_HAL_Driver/Src/stm32f0xx_hal_flash.c **** }
 820              		.loc 1 582 17 is_stmt 0 view .LVU205
 821 0000 014B     		ldr	r3, .L58
 822 0002 D869     		ldr	r0, [r3, #28]
 583:Drivers/STM32F0xx_HAL_Driver/Src/stm32f0xx_hal_flash.c **** 
 823              		.loc 1 583 1 view .LVU206
 824              		@ sp needed
 825 0004 7047     		bx	lr
 826              	.L59:
 827 0006 C046     		.align	2
 828              	.L58:
 829 0008 00000000 		.word	.LANCHOR0
 830              		.cfi_endproc
 831              	.LFE50:
 833              		.section	.text.FLASH_WaitForLastOperation,"ax",%progbits
 834              		.align	1
 835              		.global	FLASH_WaitForLastOperation
 836              		.syntax unified
 837              		.code	16
 838              		.thumb_func
 839              		.fpu softvfp
 841              	FLASH_WaitForLastOperation:
 842              	.LVL38:
 843              	.LFB52:
 621:Drivers/STM32F0xx_HAL_Driver/Src/stm32f0xx_hal_flash.c ****   /* Wait for the FLASH operation to complete by polling on BUSY flag to be reset.
 844              		.loc 1 621 1 is_stmt 1 view -0
 845              		.cfi_startproc
 846              		@ args = 0, pretend = 0, frame = 0
 847              		@ frame_needed = 0, uses_anonymous_args = 0
 621:Drivers/STM32F0xx_HAL_Driver/Src/stm32f0xx_hal_flash.c ****   /* Wait for the FLASH operation to complete by polling on BUSY flag to be reset.
 848              		.loc 1 621 1 is_stmt 0 view .LVU208
 849 0000 70B5     		push	{r4, r5, r6, lr}
 850              	.LCFI3:
 851              		.cfi_def_cfa_offset 16
 852              		.cfi_offset 4, -16
 853              		.cfi_offset 5, -12
 854              		.cfi_offset 6, -8
 855              		.cfi_offset 14, -4
 856 0002 0400     		movs	r4, r0
 626:Drivers/STM32F0xx_HAL_Driver/Src/stm32f0xx_hal_flash.c ****      
 857              		.loc 1 626 3 is_stmt 1 view .LVU209
 626:Drivers/STM32F0xx_HAL_Driver/Src/stm32f0xx_hal_flash.c ****      
 858              		.loc 1 626 24 is_stmt 0 view .LVU210
 859 0004 FFF7FEFF 		bl	HAL_GetTick
 860              	.LVL39:
 626:Drivers/STM32F0xx_HAL_Driver/Src/stm32f0xx_hal_flash.c ****      
 861              		.loc 1 626 24 view .LVU211
 862 0008 0500     		movs	r5, r0
 863              	.LVL40:
 628:Drivers/STM32F0xx_HAL_Driver/Src/stm32f0xx_hal_flash.c ****   { 
 864              		.loc 1 628 3 is_stmt 1 view .LVU212
 865              	.L62:
 628:Drivers/STM32F0xx_HAL_Driver/Src/stm32f0xx_hal_flash.c ****   { 
 866              		.loc 1 628 8 view .LVU213
ARM GAS  /tmp/ccTC69Sk.s 			page 31


 628:Drivers/STM32F0xx_HAL_Driver/Src/stm32f0xx_hal_flash.c ****   { 
 867              		.loc 1 628 9 is_stmt 0 view .LVU214
 868 000a 124B     		ldr	r3, .L70
 869 000c DB68     		ldr	r3, [r3, #12]
 628:Drivers/STM32F0xx_HAL_Driver/Src/stm32f0xx_hal_flash.c ****   { 
 870              		.loc 1 628 8 view .LVU215
 871 000e DB07     		lsls	r3, r3, #31
 872 0010 0AD5     		bpl	.L69
 630:Drivers/STM32F0xx_HAL_Driver/Src/stm32f0xx_hal_flash.c ****     {
 873              		.loc 1 630 5 is_stmt 1 view .LVU216
 630:Drivers/STM32F0xx_HAL_Driver/Src/stm32f0xx_hal_flash.c ****     {
 874              		.loc 1 630 8 is_stmt 0 view .LVU217
 875 0012 631C     		adds	r3, r4, #1
 876 0014 F9D0     		beq	.L62
 632:Drivers/STM32F0xx_HAL_Driver/Src/stm32f0xx_hal_flash.c ****       {
 877              		.loc 1 632 7 is_stmt 1 view .LVU218
 632:Drivers/STM32F0xx_HAL_Driver/Src/stm32f0xx_hal_flash.c ****       {
 878              		.loc 1 632 9 is_stmt 0 view .LVU219
 879 0016 002C     		cmp	r4, #0
 880 0018 04D0     		beq	.L63
 632:Drivers/STM32F0xx_HAL_Driver/Src/stm32f0xx_hal_flash.c ****       {
 881              		.loc 1 632 31 discriminator 1 view .LVU220
 882 001a FFF7FEFF 		bl	HAL_GetTick
 883              	.LVL41:
 632:Drivers/STM32F0xx_HAL_Driver/Src/stm32f0xx_hal_flash.c ****       {
 884              		.loc 1 632 44 discriminator 1 view .LVU221
 885 001e 401B     		subs	r0, r0, r5
 632:Drivers/STM32F0xx_HAL_Driver/Src/stm32f0xx_hal_flash.c ****       {
 886              		.loc 1 632 26 discriminator 1 view .LVU222
 887 0020 A042     		cmp	r0, r4
 888 0022 F2D9     		bls	.L62
 889              	.L63:
 634:Drivers/STM32F0xx_HAL_Driver/Src/stm32f0xx_hal_flash.c ****       }
 890              		.loc 1 634 9 is_stmt 1 view .LVU223
 634:Drivers/STM32F0xx_HAL_Driver/Src/stm32f0xx_hal_flash.c ****       }
 891              		.loc 1 634 16 is_stmt 0 view .LVU224
 892 0024 0320     		movs	r0, #3
 893 0026 0FE0     		b	.L64
 894              	.L69:
 640:Drivers/STM32F0xx_HAL_Driver/Src/stm32f0xx_hal_flash.c ****   {
 895              		.loc 1 640 3 is_stmt 1 view .LVU225
 640:Drivers/STM32F0xx_HAL_Driver/Src/stm32f0xx_hal_flash.c ****   {
 896              		.loc 1 640 7 is_stmt 0 view .LVU226
 897 0028 0A4B     		ldr	r3, .L70
 898 002a DB68     		ldr	r3, [r3, #12]
 640:Drivers/STM32F0xx_HAL_Driver/Src/stm32f0xx_hal_flash.c ****   {
 899              		.loc 1 640 6 view .LVU227
 900 002c 9B06     		lsls	r3, r3, #26
 901 002e 02D5     		bpl	.L66
 643:Drivers/STM32F0xx_HAL_Driver/Src/stm32f0xx_hal_flash.c ****   }
 902              		.loc 1 643 5 is_stmt 1 view .LVU228
 903 0030 084B     		ldr	r3, .L70
 904 0032 2022     		movs	r2, #32
 905 0034 DA60     		str	r2, [r3, #12]
 906              	.L66:
 646:Drivers/STM32F0xx_HAL_Driver/Src/stm32f0xx_hal_flash.c ****      __HAL_FLASH_GET_FLAG(FLASH_FLAG_PGERR))
 907              		.loc 1 646 3 view .LVU229
ARM GAS  /tmp/ccTC69Sk.s 			page 32


 646:Drivers/STM32F0xx_HAL_Driver/Src/stm32f0xx_hal_flash.c ****      __HAL_FLASH_GET_FLAG(FLASH_FLAG_PGERR))
 908              		.loc 1 646 6 is_stmt 0 view .LVU230
 909 0036 074B     		ldr	r3, .L70
 910 0038 DB68     		ldr	r3, [r3, #12]
 646:Drivers/STM32F0xx_HAL_Driver/Src/stm32f0xx_hal_flash.c ****      __HAL_FLASH_GET_FLAG(FLASH_FLAG_PGERR))
 911              		.loc 1 646 5 view .LVU231
 912 003a DB06     		lsls	r3, r3, #27
 913 003c 05D4     		bmi	.L67
 647:Drivers/STM32F0xx_HAL_Driver/Src/stm32f0xx_hal_flash.c ****   {
 914              		.loc 1 647 6 discriminator 1 view .LVU232
 915 003e 054B     		ldr	r3, .L70
 916 0040 DB68     		ldr	r3, [r3, #12]
 646:Drivers/STM32F0xx_HAL_Driver/Src/stm32f0xx_hal_flash.c ****      __HAL_FLASH_GET_FLAG(FLASH_FLAG_PGERR))
 917              		.loc 1 646 47 discriminator 1 view .LVU233
 918 0042 5B07     		lsls	r3, r3, #29
 919 0044 01D4     		bmi	.L67
 655:Drivers/STM32F0xx_HAL_Driver/Src/stm32f0xx_hal_flash.c **** }
 920              		.loc 1 655 10 view .LVU234
 921 0046 0020     		movs	r0, #0
 922              	.L64:
 656:Drivers/STM32F0xx_HAL_Driver/Src/stm32f0xx_hal_flash.c **** 
 923              		.loc 1 656 1 view .LVU235
 924              		@ sp needed
 925              	.LVL42:
 926              	.LVL43:
 656:Drivers/STM32F0xx_HAL_Driver/Src/stm32f0xx_hal_flash.c **** 
 927              		.loc 1 656 1 view .LVU236
 928 0048 70BD     		pop	{r4, r5, r6, pc}
 929              	.LVL44:
 930              	.L67:
 650:Drivers/STM32F0xx_HAL_Driver/Src/stm32f0xx_hal_flash.c ****     return HAL_ERROR;
 931              		.loc 1 650 5 is_stmt 1 view .LVU237
 932 004a FFF7FEFF 		bl	FLASH_SetErrorCode
 933              	.LVL45:
 651:Drivers/STM32F0xx_HAL_Driver/Src/stm32f0xx_hal_flash.c ****   }
 934              		.loc 1 651 5 view .LVU238
 651:Drivers/STM32F0xx_HAL_Driver/Src/stm32f0xx_hal_flash.c ****   }
 935              		.loc 1 651 12 is_stmt 0 view .LVU239
 936 004e 0120     		movs	r0, #1
 937 0050 FAE7     		b	.L64
 938              	.L71:
 939 0052 C046     		.align	2
 940              	.L70:
 941 0054 00200240 		.word	1073881088
 942              		.cfi_endproc
 943              	.LFE52:
 945              		.section	.text.HAL_FLASH_Program,"ax",%progbits
 946              		.align	1
 947              		.global	HAL_FLASH_Program
 948              		.syntax unified
 949              		.code	16
 950              		.thumb_func
 951              		.fpu softvfp
 953              	HAL_FLASH_Program:
 954              	.LVL46:
 955              	.LFB40:
 168:Drivers/STM32F0xx_HAL_Driver/Src/stm32f0xx_hal_flash.c ****   HAL_StatusTypeDef status = HAL_ERROR;
ARM GAS  /tmp/ccTC69Sk.s 			page 33


 956              		.loc 1 168 1 is_stmt 1 view -0
 957              		.cfi_startproc
 958              		@ args = 0, pretend = 0, frame = 0
 959              		@ frame_needed = 0, uses_anonymous_args = 0
 168:Drivers/STM32F0xx_HAL_Driver/Src/stm32f0xx_hal_flash.c ****   HAL_StatusTypeDef status = HAL_ERROR;
 960              		.loc 1 168 1 is_stmt 0 view .LVU241
 961 0000 F8B5     		push	{r3, r4, r5, r6, r7, lr}
 962              	.LCFI4:
 963              		.cfi_def_cfa_offset 24
 964              		.cfi_offset 3, -24
 965              		.cfi_offset 4, -20
 966              		.cfi_offset 5, -16
 967              		.cfi_offset 6, -12
 968              		.cfi_offset 7, -8
 969              		.cfi_offset 14, -4
 970 0002 CE46     		mov	lr, r9
 971 0004 4746     		mov	r7, r8
 972 0006 80B5     		push	{r7, lr}
 973              	.LCFI5:
 974              		.cfi_def_cfa_offset 32
 975              		.cfi_offset 8, -32
 976              		.cfi_offset 9, -28
 977 0008 0500     		movs	r5, r0
 978 000a 0E00     		movs	r6, r1
 979 000c 9046     		mov	r8, r2
 980 000e 1F00     		movs	r7, r3
 169:Drivers/STM32F0xx_HAL_Driver/Src/stm32f0xx_hal_flash.c ****   uint8_t index = 0U;
 981              		.loc 1 169 3 is_stmt 1 view .LVU242
 982              	.LVL47:
 170:Drivers/STM32F0xx_HAL_Driver/Src/stm32f0xx_hal_flash.c ****   uint8_t nbiterations = 0U;
 983              		.loc 1 170 3 view .LVU243
 171:Drivers/STM32F0xx_HAL_Driver/Src/stm32f0xx_hal_flash.c ****   
 984              		.loc 1 171 3 view .LVU244
 174:Drivers/STM32F0xx_HAL_Driver/Src/stm32f0xx_hal_flash.c **** 
 985              		.loc 1 174 3 view .LVU245
 174:Drivers/STM32F0xx_HAL_Driver/Src/stm32f0xx_hal_flash.c **** 
 986              		.loc 1 174 3 view .LVU246
 987 0010 224B     		ldr	r3, .L84
 988 0012 1B7E     		ldrb	r3, [r3, #24]
 989 0014 012B     		cmp	r3, #1
 990 0016 3ED0     		beq	.L80
 174:Drivers/STM32F0xx_HAL_Driver/Src/stm32f0xx_hal_flash.c **** 
 991              		.loc 1 174 3 discriminator 2 view .LVU247
 992 0018 204B     		ldr	r3, .L84
 993 001a 0122     		movs	r2, #1
 994              	.LVL48:
 174:Drivers/STM32F0xx_HAL_Driver/Src/stm32f0xx_hal_flash.c **** 
 995              		.loc 1 174 3 is_stmt 0 discriminator 2 view .LVU248
 996 001c 1A76     		strb	r2, [r3, #24]
 174:Drivers/STM32F0xx_HAL_Driver/Src/stm32f0xx_hal_flash.c **** 
 997              		.loc 1 174 3 is_stmt 1 discriminator 2 view .LVU249
 177:Drivers/STM32F0xx_HAL_Driver/Src/stm32f0xx_hal_flash.c ****   assert_param(IS_FLASH_PROGRAM_ADDRESS(Address));
 998              		.loc 1 177 3 discriminator 2 view .LVU250
 178:Drivers/STM32F0xx_HAL_Driver/Src/stm32f0xx_hal_flash.c **** 
 999              		.loc 1 178 3 discriminator 2 view .LVU251
 181:Drivers/STM32F0xx_HAL_Driver/Src/stm32f0xx_hal_flash.c ****   
 1000              		.loc 1 181 5 discriminator 2 view .LVU252
ARM GAS  /tmp/ccTC69Sk.s 			page 34


 181:Drivers/STM32F0xx_HAL_Driver/Src/stm32f0xx_hal_flash.c ****   
 1001              		.loc 1 181 14 is_stmt 0 discriminator 2 view .LVU253
 1002 001e 2048     		ldr	r0, .L84+4
 1003              	.LVL49:
 181:Drivers/STM32F0xx_HAL_Driver/Src/stm32f0xx_hal_flash.c ****   
 1004              		.loc 1 181 14 discriminator 2 view .LVU254
 1005 0020 FFF7FEFF 		bl	FLASH_WaitForLastOperation
 1006              	.LVL50:
 181:Drivers/STM32F0xx_HAL_Driver/Src/stm32f0xx_hal_flash.c ****   
 1007              		.loc 1 181 14 discriminator 2 view .LVU255
 1008 0024 041E     		subs	r4, r0, #0
 1009              	.LVL51:
 183:Drivers/STM32F0xx_HAL_Driver/Src/stm32f0xx_hal_flash.c ****   {
 1010              		.loc 1 183 3 is_stmt 1 discriminator 2 view .LVU256
 183:Drivers/STM32F0xx_HAL_Driver/Src/stm32f0xx_hal_flash.c ****   {
 1011              		.loc 1 183 5 is_stmt 0 discriminator 2 view .LVU257
 1012 0026 2FD1     		bne	.L74
 185:Drivers/STM32F0xx_HAL_Driver/Src/stm32f0xx_hal_flash.c ****     {
 1013              		.loc 1 185 5 is_stmt 1 view .LVU258
 185:Drivers/STM32F0xx_HAL_Driver/Src/stm32f0xx_hal_flash.c ****     {
 1014              		.loc 1 185 7 is_stmt 0 view .LVU259
 1015 0028 012D     		cmp	r5, #1
 1016 002a 07D0     		beq	.L81
 190:Drivers/STM32F0xx_HAL_Driver/Src/stm32f0xx_hal_flash.c ****     {
 1017              		.loc 1 190 10 is_stmt 1 view .LVU260
 190:Drivers/STM32F0xx_HAL_Driver/Src/stm32f0xx_hal_flash.c ****     {
 1018              		.loc 1 190 12 is_stmt 0 view .LVU261
 1019 002c 022D     		cmp	r5, #2
 1020 002e 02D0     		beq	.L83
 198:Drivers/STM32F0xx_HAL_Driver/Src/stm32f0xx_hal_flash.c ****     }
 1021              		.loc 1 198 20 view .LVU262
 1022 0030 0423     		movs	r3, #4
 1023 0032 9946     		mov	r9, r3
 1024              	.LVL52:
 201:Drivers/STM32F0xx_HAL_Driver/Src/stm32f0xx_hal_flash.c ****     {
 1025              		.loc 1 201 5 is_stmt 1 view .LVU263
 201:Drivers/STM32F0xx_HAL_Driver/Src/stm32f0xx_hal_flash.c ****     {
 1026              		.loc 1 201 5 is_stmt 0 view .LVU264
 1027 0034 1DE0     		b	.L76
 1028              	.LVL53:
 1029              	.L83:
 193:Drivers/STM32F0xx_HAL_Driver/Src/stm32f0xx_hal_flash.c ****     }
 1030              		.loc 1 193 20 view .LVU265
 1031 0036 0223     		movs	r3, #2
 1032 0038 9946     		mov	r9, r3
 1033 003a 1AE0     		b	.L76
 1034              	.L81:
 188:Drivers/STM32F0xx_HAL_Driver/Src/stm32f0xx_hal_flash.c ****     }
 1035              		.loc 1 188 20 view .LVU266
 1036 003c 0123     		movs	r3, #1
 1037 003e 9946     		mov	r9, r3
 1038 0040 17E0     		b	.L76
 1039              	.LVL54:
 1040              	.L77:
 203:Drivers/STM32F0xx_HAL_Driver/Src/stm32f0xx_hal_flash.c **** 
 1041              		.loc 1 203 70 view .LVU267
 1042 0042 2022     		movs	r2, #32
ARM GAS  /tmp/ccTC69Sk.s 			page 35


 1043 0044 D21A     		subs	r2, r2, r3
 1044 0046 3900     		movs	r1, r7
 1045 0048 9140     		lsls	r1, r1, r2
 1046 004a 0A00     		movs	r2, r1
 1047 004c 4146     		mov	r1, r8
 1048 004e D940     		lsrs	r1, r1, r3
 1049 0050 1143     		orrs	r1, r2
 1050              	.L78:
 203:Drivers/STM32F0xx_HAL_Driver/Src/stm32f0xx_hal_flash.c **** 
 1051              		.loc 1 203 7 view .LVU268
 1052 0052 89B2     		uxth	r1, r1
 1053 0054 8019     		adds	r0, r0, r6
 1054 0056 FFF7FEFF 		bl	FLASH_Program_HalfWord
 1055              	.LVL55:
 206:Drivers/STM32F0xx_HAL_Driver/Src/stm32f0xx_hal_flash.c ****     
 1056              		.loc 1 206 9 is_stmt 1 view .LVU269
 206:Drivers/STM32F0xx_HAL_Driver/Src/stm32f0xx_hal_flash.c ****     
 1057              		.loc 1 206 18 is_stmt 0 view .LVU270
 1058 005a 1148     		ldr	r0, .L84+4
 1059 005c FFF7FEFF 		bl	FLASH_WaitForLastOperation
 1060              	.LVL56:
 209:Drivers/STM32F0xx_HAL_Driver/Src/stm32f0xx_hal_flash.c ****       /* In case of error, stop programming procedure */
 1061              		.loc 1 209 9 is_stmt 1 view .LVU271
 1062 0060 104A     		ldr	r2, .L84+8
 1063 0062 1369     		ldr	r3, [r2, #16]
 1064 0064 0121     		movs	r1, #1
 1065 0066 8B43     		bics	r3, r1
 1066 0068 1361     		str	r3, [r2, #16]
 211:Drivers/STM32F0xx_HAL_Driver/Src/stm32f0xx_hal_flash.c ****       {
 1067              		.loc 1 211 7 view .LVU272
 211:Drivers/STM32F0xx_HAL_Driver/Src/stm32f0xx_hal_flash.c ****       {
 1068              		.loc 1 211 10 is_stmt 0 view .LVU273
 1069 006a 0028     		cmp	r0, #0
 1070 006c 0CD1     		bne	.L74
 201:Drivers/STM32F0xx_HAL_Driver/Src/stm32f0xx_hal_flash.c ****     {
 1071              		.loc 1 201 44 is_stmt 1 discriminator 2 view .LVU274
 201:Drivers/STM32F0xx_HAL_Driver/Src/stm32f0xx_hal_flash.c ****     {
 1072              		.loc 1 201 49 is_stmt 0 discriminator 2 view .LVU275
 1073 006e 0134     		adds	r4, r4, #1
 1074              	.LVL57:
 201:Drivers/STM32F0xx_HAL_Driver/Src/stm32f0xx_hal_flash.c ****     {
 1075              		.loc 1 201 49 discriminator 2 view .LVU276
 1076 0070 E4B2     		uxtb	r4, r4
 1077              	.LVL58:
 1078              	.L76:
 201:Drivers/STM32F0xx_HAL_Driver/Src/stm32f0xx_hal_flash.c ****     {
 1079              		.loc 1 201 22 is_stmt 1 discriminator 1 view .LVU277
 201:Drivers/STM32F0xx_HAL_Driver/Src/stm32f0xx_hal_flash.c ****     {
 1080              		.loc 1 201 5 is_stmt 0 discriminator 1 view .LVU278
 1081 0072 4C45     		cmp	r4, r9
 1082 0074 08D2     		bcs	.L74
 203:Drivers/STM32F0xx_HAL_Driver/Src/stm32f0xx_hal_flash.c **** 
 1083              		.loc 1 203 7 is_stmt 1 view .LVU279
 203:Drivers/STM32F0xx_HAL_Driver/Src/stm32f0xx_hal_flash.c **** 
 1084              		.loc 1 203 44 is_stmt 0 view .LVU280
 1085 0076 6000     		lsls	r0, r4, #1
 1086              	.LVL59:
ARM GAS  /tmp/ccTC69Sk.s 			page 36


 203:Drivers/STM32F0xx_HAL_Driver/Src/stm32f0xx_hal_flash.c **** 
 1087              		.loc 1 203 77 view .LVU281
 1088 0078 2301     		lsls	r3, r4, #4
 203:Drivers/STM32F0xx_HAL_Driver/Src/stm32f0xx_hal_flash.c **** 
 1089              		.loc 1 203 70 view .LVU282
 1090 007a 2022     		movs	r2, #32
 1091 007c 5242     		rsbs	r2, r2, #0
 1092 007e 9A18     		adds	r2, r3, r2
 1093 0080 DFD4     		bmi	.L77
 1094 0082 3900     		movs	r1, r7
 1095 0084 D140     		lsrs	r1, r1, r2
 1096 0086 E4E7     		b	.L78
 1097              	.LVL60:
 1098              	.L74:
 219:Drivers/STM32F0xx_HAL_Driver/Src/stm32f0xx_hal_flash.c **** 
 1099              		.loc 1 219 3 is_stmt 1 view .LVU283
 219:Drivers/STM32F0xx_HAL_Driver/Src/stm32f0xx_hal_flash.c **** 
 1100              		.loc 1 219 3 view .LVU284
 1101 0088 044B     		ldr	r3, .L84
 1102 008a 0022     		movs	r2, #0
 1103 008c 1A76     		strb	r2, [r3, #24]
 219:Drivers/STM32F0xx_HAL_Driver/Src/stm32f0xx_hal_flash.c **** 
 1104              		.loc 1 219 3 view .LVU285
 221:Drivers/STM32F0xx_HAL_Driver/Src/stm32f0xx_hal_flash.c **** }
 1105              		.loc 1 221 3 view .LVU286
 1106              	.LVL61:
 1107              	.L73:
 222:Drivers/STM32F0xx_HAL_Driver/Src/stm32f0xx_hal_flash.c **** 
 1108              		.loc 1 222 1 is_stmt 0 view .LVU287
 1109              		@ sp needed
 1110              	.LVL62:
 1111              	.LVL63:
 222:Drivers/STM32F0xx_HAL_Driver/Src/stm32f0xx_hal_flash.c **** 
 1112              		.loc 1 222 1 view .LVU288
 1113 008e C0BC     		pop	{r6, r7}
 1114 0090 B946     		mov	r9, r7
 1115 0092 B046     		mov	r8, r6
 1116 0094 F8BD     		pop	{r3, r4, r5, r6, r7, pc}
 1117              	.LVL64:
 1118              	.L80:
 174:Drivers/STM32F0xx_HAL_Driver/Src/stm32f0xx_hal_flash.c **** 
 1119              		.loc 1 174 3 view .LVU289
 1120 0096 0220     		movs	r0, #2
 1121              	.LVL65:
 174:Drivers/STM32F0xx_HAL_Driver/Src/stm32f0xx_hal_flash.c **** 
 1122              		.loc 1 174 3 view .LVU290
 1123 0098 F9E7     		b	.L73
 1124              	.L85:
 1125 009a C046     		.align	2
 1126              	.L84:
 1127 009c 00000000 		.word	.LANCHOR0
 1128 00a0 50C30000 		.word	50000
 1129 00a4 00200240 		.word	1073881088
 1130              		.cfi_endproc
 1131              	.LFE40:
 1133              		.section	.text.HAL_FLASH_OB_Launch,"ax",%progbits
 1134              		.align	1
ARM GAS  /tmp/ccTC69Sk.s 			page 37


 1135              		.global	HAL_FLASH_OB_Launch
 1136              		.syntax unified
 1137              		.code	16
 1138              		.thumb_func
 1139              		.fpu softvfp
 1141              	HAL_FLASH_OB_Launch:
 1142              	.LFB49:
 549:Drivers/STM32F0xx_HAL_Driver/Src/stm32f0xx_hal_flash.c ****   /* Set the OBL_Launch bit to launch the option byte loading */
 1143              		.loc 1 549 1 is_stmt 1 view -0
 1144              		.cfi_startproc
 1145              		@ args = 0, pretend = 0, frame = 0
 1146              		@ frame_needed = 0, uses_anonymous_args = 0
 1147 0000 10B5     		push	{r4, lr}
 1148              	.LCFI6:
 1149              		.cfi_def_cfa_offset 8
 1150              		.cfi_offset 4, -8
 1151              		.cfi_offset 14, -4
 551:Drivers/STM32F0xx_HAL_Driver/Src/stm32f0xx_hal_flash.c ****   
 1152              		.loc 1 551 3 view .LVU292
 1153 0002 054A     		ldr	r2, .L87
 1154 0004 1169     		ldr	r1, [r2, #16]
 1155 0006 8023     		movs	r3, #128
 1156 0008 9B01     		lsls	r3, r3, #6
 1157 000a 0B43     		orrs	r3, r1
 1158 000c 1361     		str	r3, [r2, #16]
 554:Drivers/STM32F0xx_HAL_Driver/Src/stm32f0xx_hal_flash.c **** }
 1159              		.loc 1 554 3 view .LVU293
 554:Drivers/STM32F0xx_HAL_Driver/Src/stm32f0xx_hal_flash.c **** }
 1160              		.loc 1 554 10 is_stmt 0 view .LVU294
 1161 000e 0348     		ldr	r0, .L87+4
 1162 0010 FFF7FEFF 		bl	FLASH_WaitForLastOperation
 1163              	.LVL66:
 555:Drivers/STM32F0xx_HAL_Driver/Src/stm32f0xx_hal_flash.c **** 
 1164              		.loc 1 555 1 view .LVU295
 1165              		@ sp needed
 1166 0014 10BD     		pop	{r4, pc}
 1167              	.L88:
 1168 0016 C046     		.align	2
 1169              	.L87:
 1170 0018 00200240 		.word	1073881088
 1171 001c 50C30000 		.word	50000
 1172              		.cfi_endproc
 1173              	.LFE49:
 1175              		.global	pFlash
 1176              		.section	.bss.pFlash,"aw",%nobits
 1177              		.align	3
 1178              		.set	.LANCHOR0,. + 0
 1181              	pFlash:
 1182 0000 00000000 		.space	32
 1182      00000000 
 1182      00000000 
 1182      00000000 
 1182      00000000 
 1183              		.text
 1184              	.Letext0:
 1185              		.file 2 "/usr/local/gcc-arm-none-eabi-10-2020-q4-major/arm-none-eabi/include/machine/_default_type
 1186              		.file 3 "/usr/local/gcc-arm-none-eabi-10-2020-q4-major/arm-none-eabi/include/sys/_stdint.h"
ARM GAS  /tmp/ccTC69Sk.s 			page 38


 1187              		.file 4 "Drivers/CMSIS/Device/ST/STM32F0xx/Include/stm32f042x6.h"
 1188              		.file 5 "Drivers/CMSIS/Device/ST/STM32F0xx/Include/stm32f0xx.h"
 1189              		.file 6 "Drivers/STM32F0xx_HAL_Driver/Inc/stm32f0xx_hal_def.h"
 1190              		.file 7 "Drivers/STM32F0xx_HAL_Driver/Inc/stm32f0xx_hal_flash.h"
 1191              		.file 8 "Drivers/STM32F0xx_HAL_Driver/Inc/stm32f0xx_hal.h"
ARM GAS  /tmp/ccTC69Sk.s 			page 39


DEFINED SYMBOLS
                            *ABS*:0000000000000000 stm32f0xx_hal_flash.c
     /tmp/ccTC69Sk.s:16     .text.FLASH_Program_HalfWord:0000000000000000 $t
     /tmp/ccTC69Sk.s:23     .text.FLASH_Program_HalfWord:0000000000000000 FLASH_Program_HalfWord
     /tmp/ccTC69Sk.s:57     .text.FLASH_Program_HalfWord:0000000000000018 $d
     /tmp/ccTC69Sk.s:63     .text.FLASH_SetErrorCode:0000000000000000 $t
     /tmp/ccTC69Sk.s:69     .text.FLASH_SetErrorCode:0000000000000000 FLASH_SetErrorCode
     /tmp/ccTC69Sk.s:130    .text.FLASH_SetErrorCode:0000000000000038 $d
     /tmp/ccTC69Sk.s:136    .text.HAL_FLASH_Program_IT:0000000000000000 $t
     /tmp/ccTC69Sk.s:143    .text.HAL_FLASH_Program_IT:0000000000000000 HAL_FLASH_Program_IT
     /tmp/ccTC69Sk.s:262    .text.HAL_FLASH_Program_IT:0000000000000060 $d
     /tmp/ccTC69Sk.s:268    .text.HAL_FLASH_EndOfOperationCallback:0000000000000000 $t
     /tmp/ccTC69Sk.s:275    .text.HAL_FLASH_EndOfOperationCallback:0000000000000000 HAL_FLASH_EndOfOperationCallback
     /tmp/ccTC69Sk.s:291    .text.HAL_FLASH_OperationErrorCallback:0000000000000000 $t
     /tmp/ccTC69Sk.s:298    .text.HAL_FLASH_OperationErrorCallback:0000000000000000 HAL_FLASH_OperationErrorCallback
     /tmp/ccTC69Sk.s:314    .text.HAL_FLASH_IRQHandler:0000000000000000 $t
     /tmp/ccTC69Sk.s:321    .text.HAL_FLASH_IRQHandler:0000000000000000 HAL_FLASH_IRQHandler
     /tmp/ccTC69Sk.s:620    .text.HAL_FLASH_IRQHandler:0000000000000148 $d
     /tmp/ccTC69Sk.s:627    .text.HAL_FLASH_Unlock:0000000000000000 $t
     /tmp/ccTC69Sk.s:634    .text.HAL_FLASH_Unlock:0000000000000000 HAL_FLASH_Unlock
     /tmp/ccTC69Sk.s:682    .text.HAL_FLASH_Unlock:0000000000000024 $d
     /tmp/ccTC69Sk.s:689    .text.HAL_FLASH_Lock:0000000000000000 $t
     /tmp/ccTC69Sk.s:696    .text.HAL_FLASH_Lock:0000000000000000 HAL_FLASH_Lock
     /tmp/ccTC69Sk.s:717    .text.HAL_FLASH_Lock:0000000000000010 $d
     /tmp/ccTC69Sk.s:722    .text.HAL_FLASH_OB_Unlock:0000000000000000 $t
     /tmp/ccTC69Sk.s:729    .text.HAL_FLASH_OB_Unlock:0000000000000000 HAL_FLASH_OB_Unlock
     /tmp/ccTC69Sk.s:764    .text.HAL_FLASH_OB_Unlock:000000000000001c $d
     /tmp/ccTC69Sk.s:771    .text.HAL_FLASH_OB_Lock:0000000000000000 $t
     /tmp/ccTC69Sk.s:778    .text.HAL_FLASH_OB_Lock:0000000000000000 HAL_FLASH_OB_Lock
     /tmp/ccTC69Sk.s:799    .text.HAL_FLASH_OB_Lock:0000000000000010 $d
     /tmp/ccTC69Sk.s:805    .text.HAL_FLASH_GetError:0000000000000000 $t
     /tmp/ccTC69Sk.s:812    .text.HAL_FLASH_GetError:0000000000000000 HAL_FLASH_GetError
     /tmp/ccTC69Sk.s:829    .text.HAL_FLASH_GetError:0000000000000008 $d
     /tmp/ccTC69Sk.s:834    .text.FLASH_WaitForLastOperation:0000000000000000 $t
     /tmp/ccTC69Sk.s:841    .text.FLASH_WaitForLastOperation:0000000000000000 FLASH_WaitForLastOperation
     /tmp/ccTC69Sk.s:941    .text.FLASH_WaitForLastOperation:0000000000000054 $d
     /tmp/ccTC69Sk.s:946    .text.HAL_FLASH_Program:0000000000000000 $t
     /tmp/ccTC69Sk.s:953    .text.HAL_FLASH_Program:0000000000000000 HAL_FLASH_Program
     /tmp/ccTC69Sk.s:1127   .text.HAL_FLASH_Program:000000000000009c $d
     /tmp/ccTC69Sk.s:1134   .text.HAL_FLASH_OB_Launch:0000000000000000 $t
     /tmp/ccTC69Sk.s:1141   .text.HAL_FLASH_OB_Launch:0000000000000000 HAL_FLASH_OB_Launch
     /tmp/ccTC69Sk.s:1170   .text.HAL_FLASH_OB_Launch:0000000000000018 $d
     /tmp/ccTC69Sk.s:1181   .bss.pFlash:0000000000000000 pFlash
     /tmp/ccTC69Sk.s:1177   .bss.pFlash:0000000000000000 $d

UNDEFINED SYMBOLS
FLASH_PageErase
HAL_GetTick
